:100000000C9471010C94A2010C94A2010C94A20115
:100010000C94A2010C94A2010C94A2010C94A201D4
:100020000C94A2010C946A090C946A090C946A0954
:100030000C94A2010C94E20A0C94A2010C94A2016B
:100040000C94A2010C945C0D0C94A2010C94A201DE
:100050000C94A2010C94A2010C94A2010C94980A95
:100060000C94A2010C94510C0C94270C0C94A2013A
:100070000C94A2010C94A2010C94A2010C94A20174
:100080000C94A2010C94A2010C94A2010C94A20164
:100090000C94A2010C94A2010C94A2010C9474097A
:1000A0000C94A2010C94A2010C94A2010C94A20144
:1000B0000C94A2010C94A2010C94A2010C947B0C50
:1000C0000C94A2010C94A2010C94A2010C94FD0BBF
:1000D0000C94D30B0C94A2010C94A90B0C947F0BE1
:1000E0000C94A2010C9436050C94B2020C940607F1
:1000F0000C94CD040C94F2060C94CB010C94F701F3
:100100000C94AC020C9490050C94CC010C947102EC
:100110000C94F8070C94B5060C9413050C94240267
:100120000C943D070C94DD010C9490020C947F021A
:100130000C94C4060C94A4060C94F7070C94BA060D
:100140000C9415070C94040E0C941F070C943307A1
:100150000C94B1020C947B020C94FC060C94E00607
:100160000C94A8020C94DD050C94F0010C9486020A
:100170000C94B6020C949E020C9483020C944405D9
:100180000C9422050C94D8060C9429070C9447076C
:100190000C9477020C94E8060C9425120C94CE066D
:1001A0000C9496020C948C020C94CD010C94A40235
:1001B0000C94CE010C9410080C949A0200002000BC
:1001C0002300260029002C002F003200000100002F
:1001D0000301060109010200002100240027002A72
:1001E000002D003000330001010000040107010A66
:1001F0000100002200250028002B002E00310034D1
:100200000002010000050108010B010505050507B5
:100210000508080808020202020A0A080804040481
:1002200004010101010101010103030303030303AD
:1002300003040707070C0C0C0C0C0C0C0C0202023C
:100240000206060606060606060B0B0B0B0B0B0B2F
:100250000B010210202008081020401020408002CE
:1002600001020108040201010204081020408080FC
:100270004020100804020180040201804020100880
:100280000402010804020101020408102040800158
:100290000204081020408000000A0B02090C0D0E19
:1002A0000807030401000000000000000000000037
:1002B000000000000000000000000000000000003E
:1002C00000000012111000000000000000000000FB
:1002D0000000000000000000000000000000040E0C
:1002E000251211241FBECFEFD1E2DEBFCDBF00E04B
:1002F0000CBF12E0A0E0B2E0E0EBFCE200E00BBFDC
:1003000002C007900D92A437B107D9F727E0A4E700
:10031000B2E001C01D92AE34B207E1F711E0C0E7D0
:10032000D1E000E006C021970109802FFE010E9464
:100330007B13CF36D10780E00807A9F70E94EC0FA6
:100340000C9446160C9400002091E202260F3327ED
:10035000331F21323105ECF420912F03FC0190E092
:1003600080E0243069F082E00895A091E2022191BA
:10037000AC0140545D4FA40FB52FB11D2C930196D5
:10038000861798F38091E202680F6093E20280E0A2
:10039000089581E00895089508950895E091BE02BA
:1003A0008091BD02E81730F4F0E0E356FD4F808104
:1003B00090E008958FEF9FEF08959091BE02809195
:1003C000BD022FEF3FEF981748F4E92FF0E0E35616
:1003D000FD4F208130E09F5F9093BE02C9010895D8
:1003E0008091BD029091BE02891B990B0895CF9216
:1003F000DF92EF92FF920F931F93CF93DF937C01D5
:10040000CB018A0120913503222389F0EB016B0196
:10041000C40ED51ECC15DD0569F06991D701ED91AB
:10042000FC910190F081E02DC7011995F3CF642F65
:100430000E94A401C801DF91CF911F910F91FF90FD
:10044000EF90DF90CF900895CF93DF931F92CDB7B9
:10045000DEB76983209135032223F9F020915803F8
:10046000203258F021E030E0FC013383228390E019
:1004700080E00F90DF91CF91089580913603E82FAF
:10048000F0E0E95CFC4F998190838F5F80933603A5
:100490008093580381E090E0ECCF61E0CE010196BB
:1004A0000E94A401F7CF8150823108F05AC0E82F92
:1004B000F0E08827E15AFD4F8F4F0C947B137F02A9
:1004C0008302710277027B02B10286028C029002E3
:1004D00096029A029E02A402A802B102AC02B202E3
:1004E000B602809180008F7780938000089580917C
:1004F00080008F7DF9CF80918000877FF5CF84B514
:100500008F7784BD089584B58F7DFBCF8091B00037
:100510008F778093B00008958091B0008F7DF9CFE0
:10052000809190008F778093900008958091900043
:100530008F7DF9CF80919000877FF5CF8091A000CB
:100540008F778093A00008958091A0008F7DF9CFD0
:100550008091A000877FF5CF809120018F778093D5
:1005600020010895809120018F7DF9CF8091200195
:10057000877FF5CF1F93CF93DF93282F30E0F901CA
:10058000E956FD4F8491F901EF5AFD4FD491F901DD
:10059000E55FFD4FC491CC23A9F0162F81110E9475
:1005A0005302EC2FF0E0EE0FFF1FEF50FE4FA5912E
:1005B000B4918FB7F894EC91111108C0D095DE2357
:1005C000DC938FBFDF91CF911F910895DE2BF8CF81
:1005D00010922F0381E080932E031092090361E0B3
:1005E00084E10E94BA0261E085E10E94BA02E9EB6F
:1005F000F0E080818E7F808380818D7F808388E49E
:100600008093B80085E48093BC000895CF93DF9376
:1006100091E09093BF028823B9F0C091B800D091C7
:10062000BA008091BC008A7B8093BC0060E084E1CA
:100630000E94BA0260E085E10E94BA020E94E802CC
:10064000D093BA00C093B800DF91CF910895CF93B3
:10065000DF9390E0FC01EF5AFD4F2491855F9D4FA1
:10066000FC0184918823D1F090E0880F991FFC0150
:10067000E952FE4FA591B491FC01EF50FE4FC59198
:10068000D49161110EC09FB7F8948C91E22FE09540
:100690008E238C932881E223E8839FBFDF91CF9143
:1006A00008958FB7F894EC91E22BEC938FBFF6CFBF
:1006B0003FB7F8948091990290919A02A0919B0281
:1006C000B0919C0226B5A89B05C02F3F19F001965A
:1006D000A11DB11D3FBFBA2FA92F982F8827BC019C
:1006E000CD01620F711D811D911D42E0660F771FC4
:1006F000881F991F4A95D1F70895CF92DF92EF9204
:10070000FF920F931F93CF93DF93D091580381E013
:10071000D13208F09CC0C09157030E9458036B016E
:100720007C0180912F0381116CC082E080932F03A4
:1007300081E080932E038FEF80932D0310922C0382
:10074000D0932B03A7E3B3E0EBE0F3E080E0D81312
:100750008DC010920A0380910A03CC0FC82BC0935E
:100760000A0380910903813009F084C010920903C3
:100770000E9458036B017C0180910A038093BB00A7
:100780008091310390913203A0913303B0913403EF
:10079000892B8A2B8B2BA1F00E94580300913103E7
:1007A0001091320320913303309134036C197D0989
:1007B0008E099F09061717072807390708F442C052
:1007C0008091BC0083FDD8CF85EC8093BC000E9453
:1007D00058036B017C0180912F03823009F44CC0D7
:1007E00080912D038F3F09F469C080912D038032E1
:1007F00009F466C080912D03803309F463C084E05E
:1008000026C08091310390913203A0913303B091BF
:100810003403892B8A2B8B2B09F483CF0E94580336
:10082000009131031091320320913303309134034E
:100830006C197D098E099F090617170728073907C4
:1008400008F06FCF809130030E94060385E010927C
:1008500036031092580310923503DF91CF911F9108
:100860000F91FF90EF90DF90CF9008959D9191931D
:100870008F5F6DCF85EEA9CF8091310390913203C8
:10088000A0913303B0913403892B8A2B8B2B09F46D
:10089000A2CF0E945803009131031091320320919E
:1008A0003303309134036C197D098E099F090617B3
:1008B00017072807390708F08ECFC4CF80E0C7CFCD
:1008C00082E0C5CF83E0C3CF0F931F93CF93DF9315
:1008D000162F072FC3E1D7E0AA85BB859C8521E0B1
:1008E00020933503909357031092360310925803C8
:1008F000ED91FC9111970190F081E02D682FCD01D1
:1009000019958A859B85DC01ED91FC910190F08120
:10091000E02D602F19958A859B85DC01ED91FC9176
:100920000190F081E02D612F1995DF91CF911F91FA
:100930000F910C947D038F929F92AF92BF92CF92B2
:10094000DF92EF92FF924B015C010E9458036B0112
:100950007C010E9458036C197D098E099F09683E2D
:10096000734081059105A8F321E0821A9108A1083E
:10097000B10888EEC80E83E0D81EE11CF11C81147A
:100980009104A104B10429F7FF90EF90DF90CF907C
:10099000BF90AF909F908F900895AF92BF92CF92EB
:1009A000DF92EF92FF920F931F93CF93DF936C012F
:1009B0007B018B01040F151FEB015E01AE18BF0810
:1009C000C017D10759F06991D601ED91FC910190C2
:1009D000F081E02DC6011995892B79F7C501DF91CA
:1009E000CF911F910F91FF90EF90DF90CF90BF902C
:1009F000AF900895FC01A089B1898C91A689B7892F
:100A000082FD0FC09C91818D8F5F8F73228D821725
:100A100049F0A18DAE0FBF2FB11D5D969C93818FC4
:100A200008958C910895FC01538D448D252F30E05D
:100A3000842F90E0821B930B541710F0CF960895EB
:100A400001970895FC01918D828D981761F0A28D18
:100A5000AE0FBF2FB11D5D968C91928D9F5F9F73DE
:100A6000928F90E008958FEF9FEF0895FC01918D94
:100A7000828D981731F0828DE80FF11D858D90E001
:100A800008958FEF9FEF0895FC01918D228D892F9E
:100A900090E0805C9F4F821B91098F739927089586
:100AA00085E693E00E94440521E0892B09F420E0CB
:100AB000822F089582E094E00E94440521E0892B72
:100AC00009F420E0822F08958FE994E00E94440504
:100AD00021E0892B09F420E0822F0895FC01A48DE8
:100AE000A80FB92FB11DA35ABF4F2C91848D90E050
:100AF00001968F739927848FA689B7892C93A08933
:100B0000B1898C91837080648C93938D848D9813BC
:100B100006C00288F389E02D80818F7D808308954F
:100B2000EF92FF920F931F93CF93DF93EC0181E03D
:100B3000888F9B8D8C8D98131AC0E889F9898081E4
:100B400085FF15C09FB7F894EE89FF896083E88917
:100B5000F98980818370806480839FBF81E090E009
:100B6000DF91CF911F910F91FF90EF900895F62E96
:100B70000B8D10E00F5F1F4F0F731127E02E8C8D30
:100B80008E110CC00FB607FCFACFE889F989808175
:100B900085FFF5CFCE010E946E05F1CFEB8DEC0FF6
:100BA000FD2FF11DE35AFF4FF0829FB7F8940B8F92
:100BB000EA89FB8980818062CFCFCF93DF93EC01FC
:100BC000888D8823B9F0AA89BB89E889F9898C9135
:100BD00085FD03C0808186FD0DC00FB607FCF7CFF1
:100BE0008C9185FFF2CF808185FFEDCFCE010E94F1
:100BF0006E05E9CFDF91CF910895F0E0E0E0199420
:100C000080E090E0892B29F00E94640581110E9408
:100C1000000080E090E0892B49F080E090E0892B93
:100C200029F00E94000081110E9400000E945A05D4
:100C300081110E94FD0580E090E0892B29F00E943F
:100C4000500581110C94000008958F929F92AF92ED
:100C5000BF92CF92DF92EF92FF920F931F93CF93A9
:100C6000DF93EC016A017B0120E030E04FE753E4C1
:100C7000CB01B6010E948F124B015C0120E030E0F5
:100C8000A9010E942B1418168CF5C501B4010E940D
:100C9000F5138B01B98020E030E0A901C701B6014E
:100CA0000E942B1460E018160CF061E08B2D0E945E
:100CB000BA020F3F110509F0ECF41127C88161E079
:100CC0008C2F0E94270301151105B9F460E08C2FC9
:100CD000DF91CF911F910F91FF90EF90DF90CF9018
:100CE000BF90AF909F908F900C94BA02C501B40151
:100CF0009058CDCF0FEF10E0E1CF0F3F110511F469
:100D000061E0E5CFEC2FF0E0E956FD4FE491E150D2
:100D1000E23108F0BCC0F0E08827EE56F94F8F4F63
:100D20000C947B13A406B506BA06C406CE06470784
:100D3000D806E006E806F206FC06060715071F07B8
:100D40004707290733073D0784B5806884BD07BD81
:100D5000DF91CF911F910F91FF90EF90DF90CF9097
:100D6000BF90AF909F908F90089584B5806284BDAE
:100D700008BDEECF80918000806880938000109342
:100D8000890000938800E4CF809180008062809386
:100D9000800010938B0000938A00DACF809180004E
:100DA00088608093800010938D0000938C00D0CFDA
:100DB0008091B00080688093B0000093B300C8CFEA
:100DC0008091B00080628093B0000093B400C0CFE7
:100DD0008091900080688093900010939900009318
:100DE0009800B6CF8091900080628093900010931D
:100DF0009B0000939A00ACCF809190008860809314
:100E0000900010939D0000939C00A2CF8091A000C1
:100E100080688093A0008091A0008F7B8093A000C9
:100E20001093A9000093A80093CF8091A000806246
:100E30008093A0001093AB000093AA0089CF80910B
:100E4000A00088608093A0001093AD000093AC00D8
:100E50007FCF809120018068809320011093290129
:100E60000093280175CF809120018062809320013A
:100E700010932B0100932A016BCF80912001886091
:100E80008093200110932D0100932C0161CF003835
:100E900011050CF035CF1ACF8EBD00000DB407FE42
:100EA000FDCF8EB50895CF93DF93EC0160E088818C
:100EB0000E94BA0288E90E944C0780E00E944C0719
:100EC00080E00E944C0780E00E944C0780E00E9476
:100ED0004C0761E088810E94BA028BE891E001979B
:100EE000F1F760E088810E94BA0280EE0E944C0710
:100EF00061E08881DF91CF910C94BA02AF92BF92EA
:100F0000CF92DF92EF92FF920F931F93CF93DF93D5
:100F1000CDB7DEB760970FB6F894DEBF0FBECDBF7A
:100F20006C0160E0FC0180810E94BA0280E60E94B0
:100F30004C079E012F5F3F4F79015E0131E1A30E07
:100F4000B11C870180E00E944C0790E0B0E0A0E077
:100F5000F80181939193A193B1938F01EA15FB0559
:100F600089F761E0F60180810E94BA0280E090E09A
:100F7000DC01F70141915191619171917F01BA2F8B
:100F8000A92F982F8827840F951FA61FB71FE0173A
:100F9000F10779F79C01AD0166277727CB01621B2A
:100FA000730B840B950B60960FB6F894DEBF0FBEE3
:100FB000CDBFDF91CF911F910F91FF90EF90DF9008
:100FC000CF90BF90AF900895FC01248131E0309321
:100FD00035032093570310923603109258038485EB
:100FE000682B89E593E00E9424020C947D03089508
:100FF00090E080E008950F931F93CF938C01C62F4C
:1010000064600E94E4076C2F6B7FC8010E94E407B4
:1010100083EC90E00197F1F7CF911F910F91089524
:101020000F931F93CF93DF938C01C62FD62FD07FC2
:10103000D1606D2F0E94E4076D2FC8010E94FB074D
:1010400080E1C89FE0011124C1606C2FC8010E949B
:10105000E4076C2FC8010E94FB0781E090E0DF915C
:10106000CF911F910F910895FC0101900020E9F7A5
:101070003197AF01481B590BBC018FE994E00C94E8
:10108000CD048F929F92AF92BF920F931F93CF93F5
:10109000DF93CDB7DEB7A1970FB6F894DEBF0FBED2
:1010A000CDBF19A2423008F44AE08E010F5D1F4FF8
:1010B000842E912CB12CA12CA50194010E944D13DA
:1010C000E62FB901CA01EA30F4F4E05DD801EE93ED
:1010D0008D01232B242B252B79F790E080E01097AE
:1010E00019F0CD010E943408A1960FB6F894DEBF26
:1010F0000FBECDBFDF91CF911F910F91BF90AF90E9
:101100009F908F900895E95CE1CFCF92DF92EF92AC
:10111000FF92CF93DF936B017C016DE28FE994E046
:101120000E949005EC0166277727CB016C197D0999
:101130008E099F094AE00E9441088C0F9D1FDF9194
:10114000CF91FF90EF90DF90CF900895CF93DF93F2
:101150000E943408EC018FE392E00E9434088C0F67
:101160009D1FDF91CF910895CF92DF92EF92FF9272
:101170000F931F93CF93DF93BC01990F880B990BAB
:101180000E9430122EEB30E349E95DE30E948313A5
:101190000E94F5136B01EB0182E492E00E94340897
:1011A000B601DD0C880B990B97FF54C00E9485088F
:1011B00080E492E00E94340880E397E00E945307A5
:1011C00040E050E060E87EEB8EE297E00E9425066A
:1011D0004FE852EC65E77EE38CE297E00E9425063B
:1011E00080E397E00E947E079B01AC018827992746
:1011F000DC01821B930BA40BB50B8C01BC01990F76
:10120000880B990B97FF2AC00E9485088FE392E014
:101210000E94340862E370E080E090E00E949B044A
:101220000C171D076CF240E050E060E070E88EE2C1
:1012300097E00E94250640E050E0BA018CE297E07A
:10124000DF91CF911F910F91FF90EF90DF90CF90A2
:101250000C9425064AE00E944108AACF4AE00E9469
:101260004108D4CF85ED8093BC00809131039091EB
:101270003203A0913303B09134030796A11DB11D31
:1012800023E0B695A795979587952A95D1F7209154
:10129000BC0024FD03C010922F0308954091310338
:1012A000509132036091330370913403452B462BE8
:1012B000472B69F30097A105B10541F025E32A9575
:1012C000F1F700000197A109B109E1CF8091300346
:1012D0000C9406031F920F920FB60F9211240F90D9
:1012E0000FBE0F901F9018951F920F920FB60F927E
:1012F00011240BB60F922F933F934F935F936F93ED
:101300007F938F939F93AF93BF93EF93FF938091BE
:10131000B900887F803609F44DC008F040C088329B
:1013200009F4A9C028F5803109F49DC0C8F48823C8
:1013300009F4FBC0883009F496C0FF91EF91BF918A
:10134000AF919F918F917F916F915F914F913F915D
:101350002F910F900BBE0F900FBE0F901F901895FE
:10136000883109F488C0803241F780932D0314C07E
:10137000803409F49DC040F48033B9F38833E9F632
:1013800080932D0385ECB0C0803509F485C0883585
:1013900009F496C0883489F60E943209CECF883984
:1013A00009F48CC038F5883729F050F4883611F0EC
:1013B000803719F683E080932F031092060357C0FD
:1013C000883809F47BC0803919F0803809F0B5CF2E
:1013D00080910603803208F071C0E091060381E03D
:1013E0008E0F809306038091BB00F0E0EA51FD4F21
:1013F00080833DC0803B39F0E0F4803A09F479C045
:10140000883A09F09ACF84E080932F031092E30288
:101410001092E202E091E002F091E10219958091D0
:10142000E20281110FC081E08093E2021092C002BB
:1014300009C0803C09F4A6CF883C09F4A3CF883BBF
:1014400009F07BCFE091E30281E08E0F8093E3020D
:10145000F0E0E054FD4F80818093BB009091E30267
:101460008091E20229C080910A038093BB0085EC41
:101470008093BC0062CF90912C0380912B0398172E
:1014800058F5E0912C0381E08E0F80932C03F0E05F
:10149000E55FFC4F8081E9CFE0912C0381E08E0F66
:1014A00080932C038091BB00F0E0E55FFC4F8083CC
:1014B00090912C0380912B039817C8F285E8D8CF20
:1014C000E0912C0381E08E0F80932C038091BB0070
:1014D000F0E0E55FFC4F808380912E0381115CCFAB
:1014E00081E08093090384EA8093BC0010922F036B
:1014F00024CF85EC8093BC0010922F0380910603CB
:10150000803230F4E0910603F0E0EA51FD4F1082A2
:101510006091060370E0E091E402F091E50286EE4E
:1015200092E019951092060308CF10922D0334CF44
:101530001F920F920FB60F9211242F933F938F9308
:101540009F93AF93BF938091950290919602A09143
:101550009702B09198023091940223E0230F2D3727
:1015600058F50196A11DB11D209394028093950218
:1015700090939602A0939702B0939802809199025B
:1015800090919A02A0919B02B0919C020196A11D9C
:10159000B11D8093990290939A02A0939B02B093FD
:1015A0009C02BF91AF919F918F913F912F910F908E
:1015B0000FBE0F901F90189526E8230F0296A11DCD
:1015C000B11DD2CF1F920F920FB60F9211240BB6FE
:1015D0000F922F933F934F935F936F937F938F93CC
:1015E0009F93AF93BF93EF93FF9380918F0290915E
:1015F0009002A0919102B0919202892B8A2B8B2BA1
:10160000D1F190918E028091000089278093000093
:1016100080918F0290919002A0919102B0919202DC
:10162000181619061A061B069CF480918F029091D9
:101630009002A0919102B09192020197A109B10983
:1016400080938F0290939002A0939102B0939202A4
:10165000FF91EF91BF91AF919F918F917F916F918A
:101660005F914F913F912F910F900BBE0F900FBE46
:101670000F901F90189580910002E6EDF1E0E49143
:101680009FEF90930002E230E9F040F4EE2389F0FE
:10169000E13091F060E00E94BA02DACFE43049F123
:1016A00010F1E530B9F7909173009D7F909373002E
:1016B000F1CF10926E00EECF90916F009D7F9093CE
:1016C0006F00E8CF909170009D7F9093700091E043
:1016D0009093B0009091B100987F94609093B10086
:1016E0001092B300D7CF909171009D7F90937100BD
:1016F000D1CF909172009D7F90937200CBCF1F92BB
:101700000F920FB60F9211240BB60F922F933F93A7
:101710004F935F936F937F938F939F93AF93BF93F9
:10172000EF93FF9385E693E00E946E05FF91EF91A2
:10173000BF91AF919F918F917F916F915F914F91E9
:101740003F912F910F900BBE0F900FBE0F901F90E7
:1017500018951F920F920FB60F9211240BB60F928D
:101760002F933F934F935F936F937F938F939F93A9
:10177000AF93BF93EF93FF9385E693E00E94FA0443
:10178000FF91EF91BF91AF919F918F917F916F9159
:101790005F914F913F912F910F900BBE0F900FBE15
:1017A0000F901F9018951F920F920FB60F92112451
:1017B0000BB60F922F933F934F935F936F937F934B
:1017C0008F939F93AF93BF93EF93FF9382E094E047
:1017D0000E946E05FF91EF91BF91AF919F918F9104
:1017E0007F916F915F914F913F912F910F900BBE21
:1017F0000F900FBE0F901F9018951F920F920FB66B
:101800000F9211240BB60F922F933F934F935F9338
:101810006F937F938F939F93AF93BF93EF93FF93B8
:1018200082E094E00E94FA04FF91EF91BF91AF91A2
:101830009F918F917F916F915F914F913F912F91E8
:101840000F900BBE0F900FBE0F901F9018951F9218
:101850000F920FB60F9211240BB60F922F933F9356
:101860004F935F936F937F938F939F93AF93BF93A8
:10187000EF93FF938FE994E00E946E05FF91EF9143
:10188000BF91AF919F918F917F916F915F914F9198
:101890003F912F910F900BBE0F900FBE0F901F9096
:1018A00018951F920F920FB60F9211240BB60F923C
:1018B0002F933F934F935F936F937F938F939F9358
:1018C000AF93BF93EF93FF938FE994E00E94FA04E4
:1018D000FF91EF91BF91AF919F918F917F916F9108
:1018E0005F914F913F912F910F900BBE0F900FBEC4
:1018F0000F901F9018951F920F920FB60F92112400
:101900000BB60F922F933F934F935F936F937F93F9
:101910008F939F93AF93BF93CF93DF93EF93FF93F7
:1019200020913D0530E0F901E956FD4F8491F90120
:10193000EF5AFD4FD491F901E55FFD4FC491CC23DF
:1019400079F081110E945302EC2FF0E0EE0FFF1F9F
:10195000E454FE4FA591B491EC91ED2381E009F49C
:1019600080E020914105309142052F5F3F4F309339
:1019700042052093410590914005953618F096E078
:1019800090933C0590913C05943009F466C0B8F4FE
:101990009230F1F0933009F444C090913F059923BF
:1019A00009F46BC081117EC080913E05882309F443
:1019B00063C080913E0561E00E94BA025EC095302E
:1019C00009F457C0963049F791E090930D064FC047
:1019D0008111E3CF20914105309142052436310534
:1019E00028F41092420510924105D7CF10920D06AF
:1019F00010924005E091400591E09E0F90934005C4
:101A0000F0E02091410530914205EE0FFF1FE45CAC
:101A1000FA4F30872783109242051092410593E0D8
:101A200019C0813009F0B9CFE091400591E09E0FD7
:101A300090934005F0E02091410530914205EE0F72
:101A4000FF1FE45CFA4F3087278310924205109203
:101A5000410594E090933C05A0CF882359F2209152
:101A60004105309142052536310508F496CF95E0C1
:101A7000F1CF811192CFB5CF2F9AFF91EF91DF91E6
:101A8000CF91BF91AF919F918F917F916F915F9116
:101A90004F913F912F910F900BBE0F900FBE0F9063
:101AA0001F90189580913E05882321F080913E0576
:101AB00060E082CF2F98E1CF1F920F920FB60F9266
:101AC00011240BB60F922F933F934F935F936F9315
:101AD0007F938F939F93AF93BF93CF93DF93EF93B6
:101AE000FF9380918D02C0914A06D0E087FF23C00A
:101AF000109285001092840080918D028F5F8093F8
:101B00008D0280918D02082E000C990B8C179D0779
:101B100024F480918D028C3074F180918400909136
:101B2000850084349C4908F465C0809184009091BC
:101B30008500049661C080918D02082E000C990BDF
:101B40008C179D07CCF630918D0225E03203F00111
:101B50001124E25FF94F808186FFCECF30918D0254
:101B60003203F0011124E25FF94F808160E08F734E
:101B70000E94BA02C1CF809184009091850030917B
:101B80008D0225E03203F0011124E25FF94F41811B
:101B90005281840F951F9093890080938800309123
:101BA0008D023203F0011124E25FF94F808186FF3C
:101BB0000CC030918D023203F0011124E25FF94F25
:101BC000808161E08F730E94BA02FF91EF91DF91F3
:101BD000CF91BF91AF919F918F917F916F915F91C5
:101BE0004F913F912F910F900BBE0F900FBE0F9012
:101BF0001F90189580E49CE9909389008093880059
:101C00008FEF80938D02E1CF10925C0310925B0303
:101C100088EE93E0A0E0B0E080935D0390935E03D4
:101C2000A0935F03B093600323E132E030935A0343
:101C300020935903109268031092670380936903FD
:101C400090936A03A0936B03B0936C0325E232E098
:101C5000309366032093650345E351E0509372038C
:101C60004093710344E351E0509374034093730332
:101C700040E351E0509376034093750341E351E014
:101C8000509378034093770342E351E050937A03F3
:101C90004093790346E351E050937C0340937B03E8
:101CA00010927E0310927F031092800310928103A2
:101CB0001092050410920404809306049093070484
:101CC000A0930804B0930904309303042093020402
:101CD00045ED50E050930F0440930E0444ED50E066
:101CE000509311044093100440ED50E050931304BE
:101CF0004093120441ED50E05093150440931404B6
:101D000042ED50E0509317044093160446ED50E026
:101D1000509319044093180410921B0410921C0451
:101D200010921D0410921E041092A2041092A1049D
:101D30008093A3049093A404A093A504B093A60455
:101D40003093A00420939F0485EC90E09093AC0422
:101D50008093AB0484EC90E09093AE048093AD0448
:101D600080EC90E09093B0048093AF0481EC90E01D
:101D70009093B2048093B10482EC90E09093B40409
:101D80008093B30486EC90E09093B6048093B504FE
:101D90001092B8041092B9041092BA041092BB04C5
:101DA0008091070290910802A0910902B0910A0265
:101DB0008093340790933507A0933607B093370785
:101DC00080910B0290910C02A0910D02B0910E0235
:101DD0008093380790933907A0933A07B0933B0755
:101DE00084E080933C0787E080933D0710923E0794
:101DF00084EB80933F0786E18093400788E18093DE
:101E0000410787E18093420789E180934307E0918E
:101E10004A06EC3008F4A9C08FEF80934407E091A4
:101E20004A06EC3008F4B2C08FEF809345078CE08F
:101E30008093130784E28093140786E0809315074C
:101E400085E0809316078FE1809317078EE18093DA
:101E5000180783E28093190782E280931A0785E4CA
:101E600080931B0784E480931C0780E480931F0702
:101E70001092240710922507109226071092270728
:101E8000109228071092290710922A0710922B0708
:101E9000E5E5F6E08FEF9FEFDC01128213821482FA
:101EA0001582168217821086118683879487A587EC
:101EB000B6878787908BA18BB28B12861182108296
:101EC000739627E0E331F20741F78DE090E00E943E
:101ED0003014FC011382128287E392E091838083A5
:101EE000118687E2848384E1828784E08387148675
:101EF000F0935206E0935106109253061092540646
:101F000085E280933D0510923F0510924C06109299
:101F10004B0610924E0610924D06109250061092EB
:101F20004F0661E070E090E080E00E945515009758
:101F3000F1F190934C0680934B0610924E0610924E
:101F40004D0620914F0630915006232B11F4FC01D1
:101F500010821092500610924F0661E472E0809158
:101F60004B0690914C060C943F1681E08E0F8093A7
:101F70004A06E093440725E0E29FF0011124E25F66
:101F8000F94F88EB9BE09283818349CF81E08E0FEC
:101F900080934A06E093450785E0E89FF00111240D
:101FA000E25FF94F88EB9BE09283818340CF809181
:101FB0004B0690914C06009711F00E94CC141092A1
:101FC0004C0610924B061092500610924F0610923B
:101FD0004E0610924D060895789484B5826084BDB3
:101FE00084B5816084BD85B5826085BD85B581601D
:101FF00085BD80916E00816080936E00109281009B
:102000008091810082608093810080918100816055
:102010008093810080918000816080938000809116
:10202000B10084608093B1008091B00081608093A2
:10203000B000809191008260809391008091910026
:1020400081608093910080919000816080939000E6
:102050008091A10082608093A1008091A1008160A5
:102060008093A1008091A00081608093A000809166
:102070002101826080932101809121018160809300
:1020800021018091200181608093200180917A005C
:10209000846080937A0080917A00826080937A00D5
:1020A00080917A00816080937A0080917A008068C4
:1020B00080937A001092C100E091AF04F091B004D7
:1020C00082E08083E091AB04F091AC041082E09157
:1020D000AD04F091AE048FEC80831092B704E091D0
:1020E000B304F091B40486E08083E091B104F091F0
:1020F000B204808180618083E091B104F091B204E8
:10210000808188608083E091B104F091B204808185
:1021100080688083E091B104F091B20480818F7D6A
:10212000808361E0809114070E94270360E0809122
:1021300014070E94BA0260E0809113070E942703EF
:1021400089E593E090931E0780931D071092BE02CD
:102150001092BD0210923603109258030E94E802BA
:102160008BEC91E09093E1028093E0028CEC91E0A3
:102170009093E5028093E40280E090E1A0E0B0E07B
:102180008093200790932107A0932207B093230701
:102190008AE090E0A0E0B0E08093240790932507C8
:1021A000A0932607B093270780E090E0A0E0B0E47A
:1021B0008093280790932907A0932A07B0932B07B1
:1021C00060E070E185E00E9464046FE979E380E0FB
:1021D0000E94640405E117E0C3E1D7E040E4A42EC7
:1021E00042E0B42E56E8852E52E0952E6BECE62E9A
:1021F00067E0F62ED80112969C91F80181918F012B
:10220000898F9A8F61E00E94270361E08A8D0E9486
:1022100027036E01FDE1CF0ED11CD80115969C91CC
:10222000159713968C918D8F9E8F61E00E942703E6
:1022300060E08E8D0E94270361E08D8D0E94BA02BE
:102240007FB6F89480919302811125C0F5018491A5
:10225000F4019491E82FF0E0EE0FFF1FE952FE4FDA
:10226000A591B4918C91982321F461E085E30E94BB
:10227000BA0261E085E30E9427038CB580618CBDC2
:102280008CB580648CBD61E084E30E94270361E02B
:1022900083E30E942703809193028F5F80939302D0
:1022A0007FBEC7010197F1F760E08D8D0E94BA02F1
:1022B00088E80E944C0783E00E944C0761E08D8D06
:1022C0000E94BA02C7010197F1F7C6010E945307A5
:1022D0002296F7E0C731DF0709F08CCF08E317E05B
:1022E000C4E3D7E060E0D8018D918D010E942703FF
:1022F000B7E00C331B07B1F70CE317E085E0F82ECD
:102300009CE0D92E22E0E22EF801C1908F01878156
:102310008C3008F046C061E08C2D0E942703D80164
:1023200017968C91F89EF0011124E25FF94F2C2D45
:102330002F739081907C922B9083138214826D2D49
:102340000E946F138D9DA001112430E020E0BA019E
:10235000620F731FF69EF001F79EF00D1124E25FED
:10236000F94F908196FD12C02F5F3F4F2C30310501
:1023700071F781110BC010928000E09281001092E1
:10238000850010928400E6BAE0926F00D80117969B
:10239000EC91FE9EF0011124E25FF94F8081806490
:1023A0008083F801958183818A8B9B8B60E00E94FA
:1023B000270361E08B890E94270360E08B890E94DC
:1023C000BA022296F7E0C833DF0709F09DCFF894F0
:1023D0001092200189E08093210180E293E09093A4
:1023E000290180932801109225011092240182E096
:1023F00080937300789480933C05109240058091FF
:102400003D0560E00E94270382E592E00E94A60855
:102410008CE291E00E94B40881E692E00E94A60856
:1024200060ED77E080E090E00E949B0484EF91E013
:102430000E94B40880E397E00E94530782E397E08C
:102440000E9453070E940006DFCF80914B069091B7
:102450004C06009711F00C94CC140895E89409C030
:1024600097FB3EF490958095709561957F4F8F4FC7
:102470009F4F9923A9F0F92F96E9BB279395F695DD
:10248000879577956795B795F111F8CFFAF4BB0F5B
:1024900011F460FF1BC06F5F7F4F8F4F9F4F16C0BF
:1024A000882311F096E911C0772321F09EE8872F49
:1024B000762F05C0662371F096E8862F70E060E005
:1024C0002AF09A95660F771F881FDAF7880F96957E
:1024D000879597F90895990F0008550FAA0BE0E822
:1024E000FEEF16161706E807F907C0F012161306D6
:1024F000E407F50798F0621B730B840B950B39F416
:102500000A2661F0232B242B252B21F408950A267B
:1025100009F4A140A6958FEF811D811D08950E94A9
:10252000A2120C9413130E94051338F00E940C138E
:1025300020F0952311F00C94FC120C94021311243A
:102540000C9447130E94241370F3959FC1F3950FC9
:1025500050E0551F629FF001729FBB27F00DB11D27
:10256000639FAA27F00DB11DAA1F649F6627B00DB7
:10257000A11D661F829F2227B00DA11D621F739FA0
:10258000B00DA11D621F839FA00D611D221F749FAE
:102590003327A00D611D231F849F600D211D822FF5
:1025A000762F6A2F11249F5750409AF0F1F088231C
:1025B0004AF0EE0FFF1FBB1F661F771F881F915049
:1025C0005040A9F79E3F510580F00C94FC120C94EA
:1025D00047135F3FE4F3983ED4F38695779567956C
:1025E000B795F795E7959F5FC1F7FE2B880F911D73
:1025F0009695879597F9089597F99F6780E870E019
:1026000060E008959FEF80EC089500240A94161668
:10261000170618060906089500240A9412161306D0
:10262000140605060895092E0394000C11F488235E
:1026300052F0BB0F40F4BF2B11F460FF04C06F5F7A
:102640007F4F8F4F9F4F089557FD9058440F551F50
:1026500059F05F3F71F04795880F97FB991F61F024
:102660009F3F79F087950895121613061406551F9B
:10267000F2CF4695F1DF08C0161617061806991F07
:10268000F1CF86957105610508940895E894BB27FC
:1026900066277727CB0197F90895A1E21A2EAA1B86
:1026A000BB1BFD010DC0AA1FBB1FEE1FFF1FA21702
:1026B000B307E407F50720F0A21BB30BE40BF50BFF
:1026C000661F771F881F991F1A9469F76095709588
:1026D000809590959B01AC01BD01CF010895991B98
:1026E00079E004C0991F961708F0961B881F7A9509
:1026F000C9F780950895EE0FFF1F881F8BBF0790C5
:10270000F691E02D19940E9497130C9413130E94D4
:102710000C1358F00E94051340F029F45F3F29F094
:102720000C94FC1251110C9447130C9402130E9448
:10273000241368F39923B1F3552391F3951B550B9B
:10274000BB27AA2762177307840738F09F5F5F4F84
:10275000220F331F441FAA1FA9F335D00E2E3AF0C3
:10276000E0E832D091505040E695001CCAF72BD0DB
:10277000FE2F29D0660F771F881FBB1F261737072C
:102780004807AB07B0E809F0BB0B802DBF01FF275E
:1027900093585F4F3AF09E3F510578F00C94FC122D
:1027A0000C9447135F3FE4F3983ED4F386957795F6
:1027B0006795B795F7959F5FC9F7880F911D969517
:1027C000879597F90895E1E0660F771F881FBB1F73
:1027D000621773078407BA0720F0621B730B840B20
:1027E000BA0BEE1F88F7E09508950E94FC136894D9
:1027F000B1110C94471308950E942C1388F09F5731
:1028000098F0B92F9927B751B0F0E1F0660F771F14
:10281000881F991F1AF0BA95C9F714C0B13091F00A
:102820000E944613B1E008950C944613672F782F49
:102830008827B85F39F0B93FCCF3869577956795CF
:10284000B395D9F73EF490958095709561957F4F3B
:102850008F4F9F4F08950E946B1208F48FEF0895D9
:102860000F931F93CF93DF938230910510F482E092
:1028700090E0E0914C07F0914D0730E020E0B0E0AF
:10288000A0E0309799F42115310509F44AC0281BBE
:10289000390B24303105D8F58A819B81611571058A
:1028A00089F1FB0193838283FE0111C04081518134
:1028B0000281138148175907E0F04817590799F426
:1028C000109761F012960C93129713961C93329600
:1028D000CF01DF91CF911F910F91089500934C0785
:1028E00010934D07F4CF2115310551F042175307CE
:1028F00038F0A901DB019A01BD01DF01F801C1CF68
:10290000EF01F9CF90934D0780934C07CDCFFE0197
:10291000E20FF31F81939193225031093983288369
:10292000D7CF20914A0730914B07232B41F42091B8
:1029300003023091040230934B0720934A07209101
:102940000102309102022115310541F42DB73EB745
:102950004091050250910602241B350BE0914A0775
:10296000F0914B07E217F307A0F42E1B3F0B28173B
:10297000390778F0AC014E5F5F4F2417350748F0F8
:102980004E0F5F1F50934B0740934A0781939193DB
:102990009FCFF0E0E0E09CCFCF93DF930097E9F08A
:1029A000FC01329713821282A0914C07B0914D071F
:1029B000ED0130E020E01097A1F420813181820FF9
:1029C000931F20914A0730914B072817390709F0C8
:1029D00061C0F0934B07E0934A07DF91CF910895D0
:1029E000EA01CE17DF07E8F54A815B819E014115B8
:1029F0005105B1F7E901FB83EA8349915991C40F6D
:102A0000D51FEC17FD0761F4808191810296840F38
:102A1000951FE90199838883828193819B838A83AF
:102A2000F0E0E0E012968D919C9113970097B9F534
:102A30002D913C911197CD010296820F931F209109
:102A40004A0730914B072817390739F6309751F567
:102A500010924D0710924C07B0934B07A0934A0772
:102A6000BCCFD383C28340815181840F951FC81787
:102A7000D90761F44E5F5F4F88819981480F591FD4
:102A8000518340838A819B81938382832115310501
:102A900009F0B0CFF0934D07E0934C079ECFFD01B6
:102AA000DC01C0CF13821282D7CF4F925F926F9218
:102AB0007F928F929F92AF92BF92CF92DF92EF92CE
:102AC000FF920F931F93CF93DF938C01009799F49C
:102AD000CB01DF91CF911F910F91FF90EF90DF908D
:102AE000CF90BF90AF909F908F907F906F905F90AE
:102AF0004F900C943014FC01E60FF71F9C012250FC
:102B00003109E217F30708F4AEC0D901CD91DC9189
:102B10001197C617D70720F1C530D10578F0CE013F
:102B200004978617970750F0C61BD70B2297C193BF
:102B3000D1936D937C93CF010E94CC14C801DF9197
:102B4000CF911F910F91FF90EF90DF90CF90BF90AA
:102B5000AF909F908F907F906F905F904F9008956F
:102B60005B01AC1ABD0A4C018C0E9D1EA0914C0756
:102B7000B0914D07512C412CF12CE12C109731F5DF
:102B800080914A0790914B078815990509F05CC020
:102B90004616570608F058C0809101029091020233
:102BA000009741F48DB79EB74091050250910602FF
:102BB000841B950BE817F90708F055C0F0934B07F5
:102BC000E0934A07F90171836083B8CF8D919C919E
:102BD000119712966C90129713967C901397A815E4
:102BE000B90559F56C0142E0C40ED11CCA14DB04CE
:102BF00020F1AC014A195B09DA011296159780F0B1
:102C00006282738251834083D9016D937C93E11476
:102C1000F10471F0D7011396FC93EE9312978ECFC7
:102C200022968C0F9D1FF90191838083F301EFCFD2
:102C3000F0934D07E0934C0781CF4816590608F4EE
:102C40002C017D01D3019ACFCB010E9430147C016D
:102C5000009749F0AE01B8010E943616C8010E94E3
:102C6000CC1487016BCF10E000E068CFFB01DC01E2
:102C700002C001900D9241505040D8F70895FB01D9
:102C8000DC0101900D920020E1F7089511E0C0E70A
:102C9000D1E000E006C0802FFE010E947B13219648
:102CA000011DC137D10780E00807A9F7F894FFCFCD
:102CB000FF00004E078000363738391B1D1A1C00F4
:102CC0000000002402F701F807CD01F001DD01CE7C
:102CD00001000000009005CD041305DD0544052228
:102CE000053605000000001008CD04F807F7070DB1
:102CF0000A00546865206C656E6774682069733AD1
:102D00002000546865206C656E67746820697320C4
:102D10000064666A6E64736E666C6473646C666E7F
:042D200073640000D8
:00000001FF
