:100000000C947D010C94AE010C94AE010C94AE01E5
:100010000C94AE010C94AE010C94AE010C94AE01A4
:100020000C94AE010C9456120C9456120C94561269
:100030000C94AE010C94CE130C94AE010C94AE0152
:100040000C94AE010C9427160C94AE010C94AE01E6
:100050000C94AE010C94AE010C94AE010C9484137C
:100060000C94AE010C943D150C9413150C94AE0138
:100070000C94AE010C94AE010C94AE010C94AE0144
:100080000C94AE010C94AE010C94AE010C94AE0134
:100090000C94AE010C94AE010C94AE010C94601261
:1000A0000C94AE010C94AE010C94AE010C94AE0114
:1000B0000C94AE010C94AE010C94AE010C94671537
:1000C0000C94AE010C94AE010C94AE010C94E914A6
:1000D0000C94BF140C94AE010C9495140C946B14F6
:1000E0000C94AE010C9479080C9403020C94300229
:1000F0000C9427110C94B5020C94E9010C94880916
:100100000C945E060C940A080C9409060C943611A3
:100110000C9483080C94B1010C9419070C949D0263
:100120000C946E110C9490020C94E0070C94BF1187
:100130000C9488020C9414170C9472060C945108B9
:100140000C944F060C94F6070C942E080C94441053
:100150000C94A1020C94651E0C94BD020C949702A1
:100160000C9489090C94CC060C94B0010C943808BA
:100170000C94D9010C9402110C94C7020C94F10751
:100180000C9442080C94AF020C94B9020C949402A3
:100190000C94FC010C948C020C946F080C94650870
:1001A0000C94AB020C941C080C9424080C94C3020D
:1001B0000C9480060C945B080C943E0A0C94000886
:1001C0000C9482020C9414080C94DA010C94A7028B
:1001D0000C94C2020200002100240027002A002DF6
:1001E000003000330001010000040107010A010092
:1001F000002200250028002B002E003100340002D0
:10020000010000050108010B010000200023002669
:100210000029002C002F003200000100000301061D
:10022000010901050505050705080808080202027D
:10023000020A0A0808040404040101010101010181
:10024000010303030303030303040707070C0C0C58
:100250000C0C0C0C0C020202020606060606060630
:10026000060B0B0B0B0B0B0B0B01021020200808CD
:100270001020401020408002010201080402010108
:1002800002040810204080804020100804020180F1
:100290000402018040201008040201080402010148
:1002A0000204081020408001020408102040800051
:1002B000000A0B02090C0D0E0807030401000000E0
:1002C000000000000000000000000000000000002E
:1002D00000000000000000000000001211100000EB
:1002E000000000000000000000000000000000000E
:1002F0000000000000001417651E11241FBECFEF80
:10030000D1E2DEBFCDBF00E00CBF12E0A0E0B2E062
:10031000E0E9F6E400E00BBF02C007900D92A23CBA
:10032000B107D9F727E0A2ECB2E001C01D92AE3AC6
:10033000B207E1F711E0CCE7D1E000E006C0219779
:100340000109802FFE010E94F91FCB37D10780E001
:100350000807A9F70E940C190C9436230C9400008E
:100360000895089520913903260F3327331F213232
:100370003105ECF42091AA03FC0190E080E02430E8
:1003800069F082E00895A09139032191AC01475EA4
:100390005C4FA40FB52FB11D2C930196861798F3CF
:1003A00080913903680F6093390380E0089581E0FC
:1003B00008950895E091630380916203E81730F493
:1003C000F0E0E657FC4F808190E008958FEF9FEFBB
:1003D000089590916303809162032FEF3FEF981788
:1003E00048F4E92FF0E0E657FC4F208130E09F5FB2
:1003F00090936303C9010895809162039091630310
:10040000891B990B0895CF92DF92EF92FF920F9381
:100410001F93CF93DF937C01CB018A012091B3031B
:10042000222389F0EB016B01C40ED51ECC15DD052E
:1004300069F06991D701ED91FC910190F081E02D77
:10044000C7011995F3CF642F0E94B201C801DF9153
:10045000CF911F910F91FF90EF90DF90CF90089573
:10046000CF93DF931F92CDB7DEB769832091B3039B
:100470002223F9F02091B003203258F021E030E03F
:10048000FC013383228390E080E00F90DF91CF91D5
:1004900008958091B103E82FF0E0E850FD4F998175
:1004A00090838F5F8093B1038093B00381E090E0ED
:1004B000ECCF61E0CE0101960E94B201F7CF682F28
:1004C00084EB93E00C9430028150823108F05AC0E2
:1004D000E82FF0E08827E059FD4F8F4F0C94F91F6B
:1004E00090029402820288028C02C20297029D024C
:1004F000A102A702AB02AF02B502B902C202BD025D
:10050000C302C702809180008F7780938000089596
:10051000809180008F7DF9CF80918000877FF5CF1B
:1005200084B58F7784BD089584B58F7DFBCF80918E
:10053000B0008F778093B00008958091B0008F7DD8
:10054000F9CF809190008F778093900008958091EB
:1005500090008F7DF9CF80919000877FF5CF8091BB
:10056000A0008F778093A00008958091A0008F7DD8
:10057000F9CF8091A000877FF5CF809120018F7700
:10058000809320010895809120018F7DF9CF809183
:100590002001877FF5CFCF93DF93282F30E0F9013B
:1005A000E155FD4F8491F901E759FD4FD491F901CF
:1005B000ED5DFD4FC491CC23A1F081110E94640236
:1005C000EC2FF0E0EE0FFF1FE75FFD4FA591B49118
:1005D000EC91ED2381E090E009F480E0DF91CF9190
:1005E000089580E090E0FACF1F93CF93DF93282FF8
:1005F00030E0F901E155FD4F8491F901E759FD4FD4
:10060000D491F901ED5DFD4FC491CC23A9F0162FD3
:1006100081110E946402EC2FF0E0EE0FFF1FE15108
:10062000FE4FA591B4918FB7F894EC91111108C0C9
:10063000D095DE23DC938FBFDF91CF911F9108957A
:10064000DE2BF8CF1092AA0381E0809389031092E9
:10065000840361E084E10E94F40261E085E10E948C
:10066000F402E9EBF0E080818E7F808380818D7FD2
:10067000808388E48093B80085E48093BC0008956B
:10068000CF93DF9391E0909318038823B9F0C09142
:10069000B800D091BA008091BC008A7B8093BC00E6
:1006A00060E084E10E94F40260E085E10E94F402CF
:1006B0000E942203D093BA00C093B800DF91CF917B
:1006C0000895CF93DF9390E0FC01E759FD4F24910B
:1006D0008D5D9D4FFC0184918823D1F090E0880FBF
:1006E000991FFC01EB52FE4FA591B491FC01E15121
:1006F000FE4FC591D49161110EC09FB7F8948C91B3
:10070000E22FE0958E238C932881E223E8839FBF1C
:10071000DF91CF9108958FB7F894EC91E22BEC9391
:100720008FBFF6CF90917B00977F90937B0086538D
:10073000806480937C0080917A00806480937A004A
:1007400080917A0086FDFCCF8091780090917900AD
:1007500008953FB7F8948091F4029091F502A0912A
:10076000F602B091F70226B5A89B05C02F3F19F0FD
:100770000196A11DB11D3FBFBA2FA92F982F882721
:10078000BC01CD01620F711D811D911D42E0660FFC
:10079000771F881F991F4A95D1F70895CF92DF924E
:1007A000EF92FF920F931F93CF93DF93D82FC62F13
:1007B000613208F098C00E94A9036B017C0180910E
:1007C000AA0381116BC081E08093AA0380938903FF
:1007D0009FEF90938803109287039C0F909386035A
:1007E0008093850380918503DD0FD82BD0938503FB
:1007F00080918403813009F078C0109284030E94B4
:10080000A9036B017C01809185038093BB008091DB
:10081000AC039091AD03A091AE03B091AF03892BCF
:100820008A2B8B2BA1F00E94A9030091AC0310919D
:10083000AD032091AE033091AF036C197D098E0991
:100840009F09061717072807390708F448C0809141
:10085000BC0083FDD8CF85EC8093BC000E94A90327
:100860006B017C018091AA03813009F440C0809122
:1008700087038C1710F4C0918703E4E6F3E0AAE83D
:10088000B3E080E08C1355C08C2FDF91CF911F9186
:100890000F91FF90EF90DF90CF9008958091AC037F
:1008A0009091AD03A091AE03B091AF03892B8A2B39
:1008B0008B2B09F484CF0E94A9030091AC03109103
:1008C000AD032091AE033091AF036C197D098E0901
:1008D0009F09061717072807390708F070CF80917E
:1008E000AB030E944003C0E0CFCF85EEB5CF80912F
:1008F000AC039091AD03A091AE03B091AF03892BEF
:100900008A2B8B2B09F4AECF0E94A9030091AC0374
:100910001091AD032091AE033091AF036C197D09A6
:100920008E099F09061717072807390708F09ACF7D
:10093000D6CF91919D938F5FA5CFCF92DF92EF920B
:10094000FF920F931F93CF93DF93D091B00381E079
:10095000D13208F09CC0C091B2030E94A9036B0180
:100960007C018091AA0381116CC082E08093AA036C
:1009700081E0809389038FEF80938803109287032F
:10098000D0938603A8EFB2E0E4E6F3E080E0D8136A
:100990008DC01092850380918503CC0FC82BC09326
:1009A000850380918403813009F084C01092840310
:1009B0000E94A9036B017C01809185038093BB0099
:1009C0008091AC039091AD03A091AE03B091AF03C1
:1009D000892B8A2B8B2BA1F00E94A9030091AC03D9
:1009E0001091AD032091AE033091AF036C197D09D6
:1009F0008E099F09061717072807390708F442C010
:100A00008091BC0083FDD8CF85EC8093BC000E9410
:100A1000A9036B017C018091AA03823009F44CC0C8
:100A2000809188038F3F09F469C0809188038032E8
:100A300009F466C080918803803309F463C084E0C0
:100A400026C08091AC039091AD03A091AE03B0910C
:100A5000AF03892B8A2B8B2B09F483CF0E94A90328
:100A60000091AC031091AD032091AE033091AF0320
:100A70006C197D098E099F09061717072807390782
:100A800008F06FCF8091AB030E94400385E0109285
:100A9000B1031092B0031092B303DF91CF911F9175
:100AA0000F91FF90EF90DF90CF9008959D919193DB
:100AB0008F5F6DCF85EEA9CF8091AC039091AD0390
:100AC000A091AE03B091AF03892B8A2B8B2B09F435
:100AD000A2CF0E94A9030091AC031091AD03209115
:100AE000AE033091AF036C197D098E099F0906177B
:100AF00017072807390708F08ECFC4CF80E0C7CF8B
:100B000082E0C5CF83E0C3CF0F931F93CF93DF93D2
:100B1000162F072FCEE6D7E0AA85BB859C8521E05E
:100B20002093B3039093B2031092B1031092B003D9
:100B3000ED91FC9111970190F081E02D682FCD018E
:100B400019958A859B85DC01ED91FC910190F081DE
:100B5000E02D602F19958A859B85DC01ED91FC9134
:100B60000190F081E02D612F19958A859B85DF9199
:100B7000CF911F910F910C949D04CF93C42F91E0BE
:100B80009093B30399E29093B2031092B103109241
:100B9000B003806890E00E945F026C2F84EB93E0CA
:100BA0000E94300284EB93E0CF910C949D048F92CD
:100BB0009F92AF92BF92CF92DF92EF92FF924B0142
:100BC0005C010E94A9036B017C010E94A9036C19BE
:100BD0007D098E099F09683E734081059105A8F340
:100BE00021E0821A9108A108B10888EEC80E83E0BE
:100BF000D81EE11CF11C81149104A104B10429F751
:100C0000FF90EF90DF90CF90BF90AF909F908F902C
:100C10000895AF92BF92CF92DF92EF92FF920F931F
:100C20001F93CF93DF936C017B018B01040F151F82
:100C3000EB015E01AE18BF08C017D10759F06991EA
:100C4000D601ED91FC910190F081E02DC60119953E
:100C5000892B79F7C501DF91CF911F910F91FF90FB
:100C6000EF90DF90CF90BF90AF900895FC01A089E6
:100C7000B1898C91A689B78982FD0FC09C91818D25
:100C80008F5F8F73228D821749F0A18DAE0FBF2F1A
:100C9000B11D5D969C93818F08958C910895FC0100
:100CA000538D448D252F30E0842F90E0821B930BD1
:100CB000541710F0CF96089501970895FC01918D77
:100CC000828D981761F0A28DAE0FBF2FB11D5D967A
:100CD0008C91928D9F5F9F73928F90E008958FEF1C
:100CE0009FEF0895FC01918D828D981731F0828DD0
:100CF000E80FF11D858D90E008958FEF9FEF089527
:100D0000FC01918D228D892F90E0805C9F4F821B8A
:100D100091098F739927089580EC93E00E948006D3
:100D200021E0892B09F420E0822F08958DE594E0DD
:100D30000E94800621E0892B09F420E0822F08958B
:100D40008AEF94E00E94800621E0892B09F420E0DC
:100D5000822F0895FC01A48DA80FB92FB11DA35AAD
:100D6000BF4F2C91848D90E001968F739927848FCB
:100D7000A689B7892C93A089B1898C9183708064EE
:100D80008C93938D848D981306C00288F389E02D8F
:100D900080818F7D80830895EF92FF920F931F9340
:100DA000CF93DF93EC0181E0888F9B8D8C8D98131E
:100DB0001AC0E889F989808185FF15C09FB7F8942A
:100DC000EE89FF896083E889F98980818370806476
:100DD00080839FBF81E090E0DF91CF911F910F91C1
:100DE000FF90EF900895F62E0B8D10E00F5F1F4FD0
:100DF0000F731127E02E8C8D8E110CC00FB607FCDF
:100E0000FACFE889F989808185FFF5CFCE010E946C
:100E1000AA06F1CFEB8DEC0FFD2FF11DE35AFF4F2A
:100E2000F0829FB7F8940B8FEA89FB8980818062FA
:100E3000CFCFCF93DF93EC01888D8823B9F0AA89B7
:100E4000BB89E889F9898C9185FD03C0808186FD85
:100E50000DC00FB607FCF7CF8C9185FFF2CF8081D4
:100E600085FFEDCFCE010E94AA06E9CFDF91CF9199
:100E70000895F0E0E0E0199480E090E0892B29F0FB
:100E80000E94A00681110E94000080E090E0892B62
:100E900049F080E090E0892B29F00E940000811148
:100EA0000E9400000E94960681110E94390780E08E
:100EB00090E0892B29F00E948C0681110C9400008F
:100EC00008958F929F92AF92BF92CF92DF92EF924E
:100ED000FF920F931F93CF93DF93EC016A017B0185
:100EE00020E030E04FE753E4CB01B6010E94D41E6E
:100EF0004B015C0120E030E0A9010E941621181688
:100F00008CF5C501B4010E94E0208B01B98020E07E
:100F100030E0A901C701B6010E94162160E0181651
:100F20000CF061E08B2D0E94F4020F3F110509F0D7
:100F3000ECF41127C88161E08C2F0E946103011538
:100F40001105B9F460E08C2FDF91CF911F910F91C3
:100F5000FF90EF90DF90CF90BF90AF909F908F90D9
:100F60000C94F402C501B4019058CDCF0FEF10E0FE
:100F7000E1CF0F3F110511F461E0E5CFEC2FF0E078
:100F8000E155FD4FE491E150E23108F0BCC0F0E0E2
:100F90008827E253F84F8F4F0C94F91FE007F107B1
:100FA000F60700080A08830814081C0824082E08FD
:100FB0003808420851085B08830865086F087908FB
:100FC00084B5806884BD07BDDF91CF911F910F91DB
:100FD000FF90EF90DF90CF90BF90AF909F908F9059
:100FE000089584B5806284BD08BDEECF80918000F5
:100FF0008068809380001093890000938800E4CF7C
:101000008091800080628093800010938B00009319
:101010008A00DACF809180008860809380001093EE
:101020008D0000938C00D0CF8091B00080688093B9
:10103000B0000093B300C8CF8091B000806280936D
:10104000B0000093B400C0CF80919000806880937E
:1010500090001093990000939800B6CF8091900073
:1010600080628093900010939B0000939A00ACCF15
:101070008091900088608093900010939D00009371
:101080009C00A2CF8091A00080688093A0008091F6
:10109000A0008F7B8093A0001093A9000093A8006C
:1010A00093CF8091A00080628093A0001093AB004A
:1010B0000093AA0089CF8091A00088608093A0004F
:1010C0001093AD000093AC007FCF80912001806829
:1010D00080932001109329010093280175CF8091FE
:1010E000200180628093200110932B0100932A013C
:1010F0006BCF8091200188608093200110932D0197
:1011000000932C0161CF003811050CF035CF1ACFB8
:101110008EBD00000DB407FEFDCF8EB50895CF93B0
:10112000DF93EC0160E088810E94F40288E90E946C
:10113000880880E00E94880880E00E94880880E09B
:101140000E94880880E00E94880861E088810E94EF
:10115000F4028BE891E00197F1F760E088810E944A
:10116000F40280EE0E94880861E08881DF91CF91CF
:101170000C94F402AF92BF92CF92DF92EF92FF9263
:101180000F931F93CF93DF93CDB7DEB760970FB662
:10119000F894DEBF0FBECDBF6C0160E0FC01808122
:1011A0000E94F40280E60E9488089E012F5F3F4F54
:1011B00079015E0131E1A30EB11C870180E00E943C
:1011C000880890E0B0E0A0E0F80181939193A193AA
:1011D000B1938F01EA15FB0589F761E0F601808183
:1011E0000E94F40280E090E0DC01F701419151910E
:1011F000619171917F01BA2FA92F982F8827840FB1
:10120000951FA61FB71FE017F10779F79C01AD01E5
:1012100066277727CB01621B730B840B950B6096B7
:101220000FB6F894DEBF0FBECDBFDF91CF911F91F7
:101230000F91FF90EF90DF90CF90BF90AF90089507
:101240001F93CF93DF93EC01162F88818C3008F029
:1012500046C061E0812F0E946103888195E0899FEB
:10126000F0011124E759F94F1F736081607C612BF5
:101270006083138214822CE0622F0E94ED1F829FF4
:10128000B001112430E020E095E0AB01420F531F84
:10129000949FF001959FF00D1124E759F94F40817B
:1012A00046FD13C02F5F3F4F2C30310571F7811180
:1012B0000CC01092800082E0809381001092850023
:1012C0001092840086BB80936F00E88185E0E89FE0
:1012D000F0011124E759F94F80818064808388816F
:1012E000DF91CF911F910895FC01248131E030936B
:1012F000B3032093B2031092B1031092B00384851C
:10130000862B90E00E945F0284EB93E00C949D0496
:10131000089590E080E00895CF93DF9391E090935B
:10132000B30399E29093B2031092B1031092B00309
:10133000806890E00E945F0284EB93E00E949D042D
:1013400062E089E20E94CE031092630380936203FD
:1013500084EB93E00E94E901EC0184EB93E00E94AE
:10136000E90120E0382FCE01822B932BDF91CF9122
:101370000895CF93DF93109263031092B1031092FC
:10138000B0030E94220380EB91E090935F0380936F
:101390005E0381EB91E0909361038093600381E0B1
:1013A0008093B30389E28093B20382E990E00E94C4
:1013B0005F0284EB93E00E949D0461E089E20E9459
:1013C000CE038093620384EB93E00E94E9018434AE
:1013D00011F08031E1F581E08093A507C091A80765
:1013E000D091A907AE0170E060E00E94BD05D093E6
:1013F000A907C093A807C091A607D091A70780911D
:10140000A507811102C00E94B909AE0170E060E039
:101410008FE00E94BD05D093A707C093A60741E0C7
:1014200050E060E070E080E00E94BD0563E070E0A5
:1014300080E090E00E94D70543E050E060E070E07B
:1014400080E00E94BD0581E0DF91CF91089580E0AA
:10145000FBCF0F931F93CF938C01C62F64600E9424
:1014600074096C2F6B7FC8010E94740983EC90E0B3
:101470000197F1F7CF911F910F9108950F931F934B
:10148000CF93DF938C01C62FD62FD07FD1606D2FE5
:101490000E9474096D2FC8010E94290A80E1C89F2B
:1014A000E0011124C1606C2FC8010E9474096C2FE7
:1014B000C8010E94290A81E090E0DF91CF911F913D
:1014C0000F9108958F929F92AF92BF92CF92DF9229
:1014D000EF92FF926B017C018BE897E00E948F08EE
:1014E0008DE897E00E948F0820E030E0A901C70155
:1014F000B6010E94162120E030E044EB53E41816B8
:101500000CF040C0C701B6010E946E2029E03CEB00
:1015100049E652E40E94D41E25E83BEA45E053E444
:101520000E94D41E4B015C0120E030E0A901C701FC
:10153000B6010E94162118160CF03FC08BE897E008
:101540000E94BA0890958095709561957F4F8F4F56
:101550009F4F0E94751EA50194010E946E1E1816D1
:10156000ACF04DEC5CEC6CEC7EE387E897E00E941D
:1015700061074DEC5CEC6CEC7EE389E897E00E943F
:101580006107DCCFC701B6019058BECF40E050E004
:10159000BA0187E897E00E94610740E050E060E010
:1015A00070E889E897E0FF90EF90DF90CF90BF90D0
:1015B000AF909F908F900C9461078DE897E00E9408
:1015C000BA080E94751EA50194010E946E1E18168D
:1015D0008CF04DEC5CEC6CEC7EEB89E897E00E94C3
:1015E00061074DEC5CEC6CEC7EEB87E897E00E94C9
:1015F0006107E3CF40E050E060E070E889E897E001
:101600000E94610740E050E0BA0187E897E0CBCF45
:101610008F929F92AF92BF92CF92DF92EF92FF9202
:101620006B017C0162E370E080E090E00E94D705EE
:101630008BE897E00E948F088DE897E00E948F0862
:1016400020E030E0A901C701B6010E94162120E088
:1016500030E044EB53E41816BCF5C701B6010E9414
:101660006E2029E03CEB49EE52E40E94D41E25E8AE
:101670003BEA45E053E40E94D41E4B015C0120E0AC
:1016800030E0A901C701B6010E94162118167CF5A9
:101690008BE897E00E94BA089095809570956195C7
:1016A0007F4F8F4F9F4F0E94751EA50194010E948E
:1016B0006E1E18166CF04DEC5CEC6CEC7EE387E86B
:1016C00097E00E946107E4CFC701B6019058C7CFE9
:1016D00040E050E0BA0187E897E0FF90EF90DF909C
:1016E000CF90BF90AF909F908F900C9461078DE842
:1016F00097E00E94BA080E94751EA50194010E94FD
:101700006E1E18164CF04DEC5CEC6CEC7EEB89E830
:1017100097E00E946107EBCF40E050E060E070E8A6
:1017200089E897E0DACFFC0101900020E9F73197D2
:10173000AF01481B590BBC018AEF94E00C940906D9
:101740008F929F92AF92BF920F931F93CF93DF938D
:10175000CDB7DEB7A1970FB6F894DEBF0FBECDBFF1
:1017600019A2423008F44AE08E010F5D1F4F842E0B
:10177000912CB12CA12CA50194010E94BC1FE62F35
:10178000B901CA01EA30F4F4E05DD801EE938D01AD
:10179000232B242B252B79F790E080E0109719F06C
:1017A000CD010E94930BA1960FB6F894DEBF0FBE39
:1017B000CDBFDF91CF911F910F91BF90AF909F90C0
:1017C0008F900895E95CE1CFCF93DF930E94930B54
:1017D000EC0181E492E00E94930B8C0F9D1FDF913E
:1017E000CF910895CF92DF92EF92FF92CF93DF9344
:1017F00090919907691720F090919A07961750F4E5
:1018000084E492E0DF91CF91FF90EF90DF90CF9052
:101810000C94E40BE82FF0E0E157F84FE089EC304E
:1018200008F051C0862F90E0CE2FD0E025E0E29F57
:10183000F0011124E759F94F238178E8C72ED12C04
:10184000C21AD10827FDD394CC0CDD1CCC0CDD1CB6
:10185000883C91050CF03EC00D2C000CEE08FF08F2
:10186000848128E532E0281B310987FD3395220F5A
:10187000331F220F331F032E000C440B550B2C1962
:101880003D094E095F09A62FB0E00E94B11F24EB6D
:1018900030E040E050E00E94921FC20ED31EE41ED2
:1018A000F51E8FB7F89495E09C9FF0019D9FF00D79
:1018B0001124E759F94F96E0C91AD108CC0CDD1C68
:1018C000D282C1828FBFDF91CF91FF90EF90DF90E6
:1018D000CF9008958C159D0524F3248138E5C32EFF
:1018E00032E0D32EC21AD10827FDD394CC0CDD1CD4
:1018F000CC0CDD1C8C159D05A4F66C01D2CF6DE7D8
:1019000080E00E94F20B6BE481E00C94F20BCF922A
:10191000DF92EF92FF92CF93DF936C01990FEE0865
:10192000FF08F7FE1FC06DE28AEF94E00E94CC062C
:10193000EC0166277727CB016C197D098E099F0979
:101940004AE00E94A00BC80FD91F81E492E00E94D8
:10195000930B8C0F9D1FDF91CF91FF90EF90DF9045
:10196000CF9008954AE0C701B6010E94A00BEC0198
:10197000ECCFEF92FF920F931F93CF93DF9362E32D
:1019800070E080E090E00E94D70540E050E060E029
:1019900070E889E897E00E94610740E050E0BA01F2
:1019A00087E897E00E9461078091A507811102C036
:1019B0000E94B90984E10E948C0986E10E948C0989
:1019C0007C0188E10E948C098C018AE10E948C09CB
:1019D000EC018091A8079091A907853D910509F434
:1019E00047C060F5009709F44DC0803C910509F4AB
:1019F00044C0C701805391408336910508F047C029
:101A0000CE01865E91408235910508F040C0C80144
:101A1000895B914084359105D0F581E692E00E9482
:101A2000930B61E08BE20E94F40281E090E0DF9191
:101A3000CF911F910F91FF90EF900895863F9105F0
:101A400091F08F3F910541F08B3E910591F662E355
:101A500070E080E090E004C063E070E080E090E03F
:101A60000E94D705C6CF68E170E080E090E0F8CF33
:101A700065E670E080E090E0F3CF6AE970E080E036
:101A800090E0EECF6CEB72E080E090E0E9CFC70130
:101A9000815A91408336910598F4C8018A58914043
:101AA0008534910568F4CE018D5A914083369105B5
:101AB00038F461E088E20E94F40282E090E0B7CF5F
:101AC00081ECE81A81E0F80A83E6E816F10488F46C
:101AD000045D11400336110560F4CD57D140C33683
:101AE000D10538F461E089E20E94F40283E090E0DD
:101AF0009ECF90E080E09BCF2F923F924F925F92DB
:101B00006F927F928F929F92AF92BF92CF92DF920D
:101B1000EF92FF920F931F93CF93DF93CDB7DEB772
:101B200061970FB6F894DEBF0FBECDBF6D837E8385
:101B30008F8398874F878BE897E00E948F088DE806
:101B400097E00E948F0820E030E0A9016D817E813E
:101B50008F8198850E94162118160CF0BCC04DECA0
:101B60005CEC6CE47EE387E897E00E9461074DEC53
:101B70005CEC6CE47EEB89E897E00E946107312C15
:101B8000212C1E861D869CE5C92E9FE8D92E92EC3D
:101B9000E92E9EE3F92E10E000E0198A188A8BE8FE
:101BA00097E00E94BA084B015C0125E83BEA45E05A
:101BB00053E46D817E818F8198850E94D41E2B0114
:101BC0003C0166277727CB01681979098A099B09A7
:101BD0000E94751EA30192010E946E1E18160CF43D
:101BE000F4C18BE897E00E94BA0822273327A901A5
:101BF000261B370B480B590B29873A874B875C8785
:101C00008DE897E00E94BA0869837A838B839C836E
:101C10008BE897E00E94BA08909580957095619541
:101C20007F4F8F4F9F4F0E94751E4B015C0126E630
:101C300036E646E65FE3C301B2010E94D41E9B0173
:101C4000AC01C501B4010E94162118160CF05BC04E
:101C50003F85332309F457C068897989601B710B6C
:101C6000072E000C880B990B0E94751E2AE037ED99
:101C700043E25CE30E94D41E9B01AC01C701B601A4
:101C80000E9401206B017C012DEC3CEC4CEC5DE3EF
:101C90000E946E1E87FDFEC0A7019601C701B60116
:101CA0000E941B21882309F4FCC086E692E00E9472
:101CB000930B81E492E00E94930BB701A60187E8A1
:101CC00097E00E946107B701A601705889E897E084
:101CD0000E946107CDC020E030E0A9016D817E81C6
:101CE0008F8198850E946E1E87FF49CF4DEC5CEC7A
:101CF0006CE47EEB87E897E00E9461074DEC5CECBA
:101D00006CE47EE338CF48895989BA01550F880BB6
:101D1000990B0E94751E20E030E04AE753E40E94D0
:101D2000D41E4B015C0169857A858D859E85681B73
:101D3000790B072E000C880B990B0E94751E9B01D6
:101D4000AC0160E070E08AE793E40E9401200E9409
:101D5000E020072E000C880B990B0E94751E27E1CE
:101D600037EB41E558E30E94D41E2DEC3CEC4CE4EB
:101D70005EE30E9402202B013C0129853A85B901CE
:101D8000330F880B990B0E94751E9B01AC01C50196
:101D9000B4010E9401200E94E020072E000C880B55
:101DA000990B0E94751E27E137EB41E559E30E942C
:101DB000D41E9B01AC01C301B2010E940220AB0101
:101DC000BC0187E897E00E94610769817A81621906
:101DD0007309072E000C880B990B0E94751E9B013E
:101DE000AC0160E070E08AE793E40E9401200E9469
:101DF000E020072E000C880B990B0E94751E27E12E
:101E000037EB41E558E30E94D41E2DEC3CEC4CE44A
:101E10005EE30E9402202B013C0149815A81BA01F4
:101E2000550F880B990B0E94751E9B01AC01C501D3
:101E3000B4010E9401200E94E020072E000C880BB4
:101E4000990B0E94751E27E137EB41E559E30E948B
:101E5000D41E9B01AC01C301B2010E940220AB0160
:101E6000BC01705889E897E00E94610708891989C8
:101E700062E370E080E090E00E94D705888999894C
:101E80000196998B888B29803A8029853A853E87EF
:101E90002D8785CE8DECC82E8CECD82EED2C8DE3C5
:101EA000F82E46015701E894B7F82FEF3FEF4FE7C0
:101EB0005FE7C501B4010E941B2181110DC02FEF06
:101EC0003FEF4FE75FE7C501B4010E946E1E181691
:101ED0001CF48AE692E0EBCE2FEF3FEF4FE75FE492
:101EE000C701B6010E94162118161CF48EE692E076
:101EF000DECE2FEF3FEF4FE75FECC701B6010E9448
:101F00006E1E87FDF3CF20E030E0A901C701B601C6
:101F10000E946E1E4601570187FF09C0B7FAB094B0
:101F2000B7F8B0946DE28AEF94E00E94CC062AE004
:101F300037ED43EA5BE3C501B4010E9402202B01A7
:101F40003C010E94E7204B015C010E94731E9B0133
:101F5000AC01C301B2010E9401202B013C014AE007
:101F6000C501B4010E94A00B6EE28AEF94E00E94CA
:101F7000CC0620E030E040E251E4C301B2010E940F
:101F8000D41E2B013C010E94E7204B01B12CA12C57
:101F90004AE0C501B4010E94A00BC501B4010E9432
:101FA000731E9B01AC01C301B2010E94012020E01D
:101FB00030E040E251E40E94D41E0E94E72090E00D
:101FC00080E04AE00E94A00B74CE40E050E0BA01ED
:101FD00087E897E00E94610740E050E060E070E829
:101FE00089E897E061960FB6F894DEBF0FBECDBFCB
:101FF000DF91CF911F910F91FF90EF90DF90CF90E5
:10200000BF90AF909F908F907F906F905F904F9018
:102010003F902F900C9461071F93CF93DF93182F5D
:1020200080E30E94CB02EC01CC0FDD1F8DE20E9409
:10203000CB02C80FD91FCC0FDD1F8EE20E94CB024E
:10204000C80FD91FCC0FDD1F8FE20E94CB02FE010B
:10205000E80FF91FE031F10508F091C18827EC5C29
:10206000FF4E8F4F0C94F91F271144102711271191
:102070000211BF112711BF11361136113611361159
:102080003611361136116E112AE037ED43EA5DE361
:102090006091E0027091E1028091E2029091E3028E
:1020A0000E9402206093E0027093E1028093E202BA
:1020B0009093E3022AE037ED43EA5DE36091DC02AE
:1020C0007091DD028091DE029091DF020E9401207A
:1020D0006093DC027093DD028093DE029093DF0256
:1020E00020E030E040E85EE36091E0027091E102C0
:1020F0008091E2029091E3020E941621181664F486
:1021000080E090E0A0E8BEE38093E0029093E102DB
:10211000A093E202B093E30220E030E040E85EE307
:102120006091DC027091DD028091DE029091DF020D
:102130000E941621181664F480E090E0A0E8BEE347
:102140008093DC029093DD02A093DE02B093DF0265
:1021500020E030E040E85EEB6091E0027091E10247
:102160008091E2029091E3020E946E1E87FF0CC0F4
:1021700080E090E0A0E8BEEB8093E0029093E10263
:10218000A093E202B093E30220E030E040E85EEB8F
:102190006091DC027091DD028091DE029091DF029D
:1021A0000E946E1E87FF0CC080E090E0A0E8BEEBAE
:1021B0008093DC029093DD02A093DE02B093DF02F5
:1021C0004091DC025091DD026091DE027091DF02ED
:1021D000705889E897E00E9461074091E0025091B1
:1021E000E1026091E2027091E30287E897E00E94C9
:1021F00061076AE070E080E090E0DF91CF911F918D
:102200000C94D7052AE037ED43EA5DE36091E002E4
:102210007091E1028091E2029091E3020E9401201C
:102220006093E0027093E1028093E2029093E302F4
:102230002AE037ED43EA5DE36091DC027091DD0254
:102240008091DE029091DF020E94022041CF2AE0BD
:1022500037ED43EA5DE36091E0027091E102809125
:10226000E2029091E3020E940220DACF112309F4E6
:1022700037CF8091DB02811120C040E050E060E068
:1022800070E889E897E00E94610740E050E0BA01F9
:1022900087E897E00E94610760E070E08CED92ECC7
:1022A0000E94080B40E060E070E080EA90E40E9449
:1022B0007C0D81E08093DB0213CF40E050E060E8CA
:1022C0007EEB89E897E00E94610740E050E060E81B
:1022D0007EEB87E897E00E94610702CF112309F4A3
:1022E0004EC08091DB0240E050E060E070E8811178
:1022F0004BC089E897E00E94610740E050E0BA01D6
:1023000087E897E00E94610764EF71E080E090E069
:102310000E94D7054DEC5CEC6CE47EE389E897E025
:102320000E9461074DEC5CEC6CE47EEB87E897E083
:102330000E94610764EF71E080E090E00E94D705A1
:1023400040E050E060E070E889E897E00E946107B3
:1023500040E050E0BA0187E897E00E94610760E042
:1023600070E088EC92EC0E94080B40E060E070E0C6
:1023700080EA90E40E947C0D81E08093DB0283E997
:1023800092E00E94E40BACCE89E897E00E946107DE
:1023900040E050E0BA0187E897E00E94610782E7D9
:1023A00092E00E94E40B68EE73E080E090E00E940F
:1023B000D70540E050E060E87EE387E897E00E94C0
:1023C000610740E050E060E87EEB89E897E00E941A
:1023D000610780E30E94CB02EC01CC0FDD1F8DE290
:1023E0000E94CB02C80FD91FCC0FDD1F8EE20E94C6
:1023F000CB02C80FD91FCC0FDD1F8FE20E94CB028A
:10240000C80FD91F8BE792E00E94E40BCD2B09F790
:1024100084E090E0909302028093010240E050E05B
:10242000BA0187E897E00E94610740E050E060E071
:1024300070E889E897E00E946107A1CF85ED80935D
:10244000BC008091AC039091AD03A091AE03B0911C
:10245000AF030796A11DB11D23E0B695A7959795EB
:1024600087952A95D1F72091BC0024FD03C01092D6
:10247000AA0308954091AC035091AD036091AE035F
:102480007091AF03452B462B472B69F30097A105AD
:10249000B10541F025E32A95F1F700000197A10964
:1024A000B109E1CF8091AB030C9440031F920F92CE
:1024B0000FB60F9211240F900FBE0F901F9018951A
:1024C0001F920F920FB60F9211240BB60F922F93FB
:1024D0003F934F935F936F937F938F939F93AF93AC
:1024E000BF93EF93FF938091B900887F803609F402
:1024F0004DC008F040C0883209F4A9C028F58031E9
:1025000009F49DC0C8F4882309F4FBC0883009F49D
:1025100096C0FF91EF91BF91AF919F918F917F9165
:102520006F915F914F913F912F910F900BBE0F9044
:102530000FBE0F901F901895883109F488C0803223
:1025400041F78093880314C0803409F49DC040F49F
:102550008033B9F38833E9F68093880385ECB0C003
:10256000803509F485C0883509F496C0883489F629
:102570000E941E12CECF883909F48CC038F58837F6
:1025800029F050F4883611F0803719F683E08093F3
:10259000AA0310925B0357C0883809F47BC08039C6
:1025A00019F0803809F0B5CF80915B03803208F0D4
:1025B00071C0E0915B0381E08E0F80935B0380919B
:1025C000BB00F0E0E55CFC4F80833DC0803B39F010
:1025D000E0F4803A09F479C0883A09F09ACF84E0AF
:1025E0008093AA0310923A0310923903E0915E039C
:1025F000F0915F0319958091390381110FC081E03B
:10260000809339031092190309C0803C09F4A6CFC6
:10261000883C09F4A3CF883B09F07BCFE0913A03D3
:1026200081E08E0F80933A03F0E0E75EFC4F8081FB
:102630008093BB0090913A038091390329C0809127
:1026400085038093BB0085EC8093BC0062CF9091A2
:10265000870380918603981758F5E091870381E0FE
:102660008E0F80938703F0E0EC59FC4F8081E9CF17
:10267000E091870381E08E0F809387038091BB00F8
:10268000F0E0EC59FC4F80839091870380918603A2
:102690009817C8F285E8D8CFE091870381E08E0FC4
:1026A000809387038091BB00F0E0EC59FC4F80835E
:1026B0008091890381115CCF81E08093840384EA57
:1026C0008093BC001092AA0324CF85EC8093BC00B9
:1026D0001092AA0380915B03803230F4E0915B0397
:1026E000F0E0E55CFC4F108260915B0370E0E091EC
:1026F0006003F09161038BE393E0199510925B0303
:1027000008CF1092880334CF1F920F920FB60F920A
:1027100011242F933F938F939F93AF93BF938091F7
:10272000F0029091F102A091F202B091F302309187
:10273000EF0223E0230F2D3758F50196A11DB11D9F
:102740002093EF028093F0029093F102A093F202A3
:10275000B093F3028091F4029091F502A091F602F9
:10276000B091F7020196A11DB11D8093F4029093E0
:10277000F502A093F602B093F702BF91AF919F913B
:102780008F913F912F910F900FBE0F901F90189532
:1027900026E8230F0296A11DB11DD2CF1F920F92E2
:1027A0000FB60F9211240BB60F922F933F934F93B6
:1027B0005F936F937F938F939F93AF93BF93EF93A9
:1027C000FF938091E6029091E702A091E802B09118
:1027D000E902892B8A2B8B2BD1F19091E502809114
:1027E00000008927809300008091E6029091E70223
:1027F000A091E802B091E902181619061A061B0604
:102800009CF48091E6029091E702A091E802B091D9
:10281000E9020197A109B1098093E6029093E702CA
:10282000A093E802B093E902FF91EF91BF91AF91BD
:102830009F918F917F916F915F914F913F912F91D8
:102840000F900BBE0F900FBE0F901F9018958091A8
:102850000002E4EDF1E0E4919FEF90930002E2309A
:10286000E9F040F4EE2389F0E13091F060E00E945D
:10287000F402DACFE43049F110F1E530B9F7909184
:1028800073009D7F90937300F1CF10926E00EECF96
:1028900090916F009D7F90936F00E8CF90917000B2
:1028A0009D7F9093700091E09093B0009091B10063
:1028B000987F94609093B1001092B300D7CF90911D
:1028C00071009D7F90937100D1CF909172009D7F98
:1028D00090937200CBCF1F920F920FB60F921124DC
:1028E0000BB60F922F933F934F935F936F937F930A
:1028F0008F939F93AF93BF93EF93FF9380EC93E0FD
:102900000E94AA06FF91EF91BF91AF919F918F9185
:102910007F916F915F914F913F912F910F900BBEDF
:102920000F900FBE0F901F9018951F920F920FB629
:102930000F9211240BB60F922F933F934F935F93F7
:102940006F937F938F939F93AF93BF93EF93FF9377
:1029500080EC93E00E943606FF91EF91BF91AF911A
:102960009F918F917F916F915F914F913F912F91A7
:102970000F900BBE0F900FBE0F901F9018951F92D7
:102980000F920FB60F9211240BB60F922F933F9315
:102990004F935F936F937F938F939F93AF93BF9367
:1029A000EF93FF938DE594E00E94AA06FF91EF91CB
:1029B000BF91AF919F918F917F916F915F914F9157
:1029C0003F912F910F900BBE0F900FBE0F901F9055
:1029D00018951F920F920FB60F9211240BB60F92FB
:1029E0002F933F934F935F936F937F938F939F9317
:1029F000AF93BF93EF93FF938DE594E00E9436066B
:102A0000FF91EF91BF91AF919F918F917F916F91C6
:102A10005F914F913F912F910F900BBE0F900FBE82
:102A20000F901F9018951F920F920FB60F921124BE
:102A30000BB60F922F933F934F935F936F937F93B8
:102A40008F939F93AF93BF93EF93FF938AEF94E09D
:102A50000E94AA06FF91EF91BF91AF919F918F9134
:102A60007F916F915F914F913F912F910F900BBE8E
:102A70000F900FBE0F901F9018951F920F920FB6D8
:102A80000F9211240BB60F922F933F934F935F93A6
:102A90006F937F938F939F93AF93BF93EF93FF9326
:102AA0008AEF94E00E943606FF91EF91BF91AF91BB
:102AB0009F918F917F916F915F914F913F912F9156
:102AC0000F900BBE0F900FBE0F901F9018951F9286
:102AD0000F920FB60F9211240BB60F922F933F93C4
:102AE0004F935F936F937F938F939F93AF93BF9316
:102AF000EF93FF93809198050E94CB0220919C0553
:102B000030919D052F5F3F4F30939D0520939C058D
:102B100090919B05953618F096E0909397059091CB
:102B20009705943009F466C0B8F49230F1F0933010
:102B300009F444C090919A05992309F46BC081115E
:102B40007CC080919905882309F463C08091990520
:102B500061E00E94F4025EC0953009F457C09630DF
:102B600049F791E0909368064FC08111E3CF20911F
:102B70009C0530919D052436310528F410929D0561
:102B800010929C05D7CF1092680610929B05E09199
:102B90009B0591E09E0F90939B05F0E020919C0592
:102BA00030919D05EE0FFF1FE956FA4F30872783BE
:102BB00010929D0510929C0593E019C0813009F098
:102BC000B9CFE0919B0591E09E0F90939B05F0E0BB
:102BD00020919C0530919D05EE0FFF1FE956FA4F9D
:102BE0003087278310929D0510929C0594E0909366
:102BF0009705A0CF882359F220919C0530919D051F
:102C00002536310508F496CF95E0F1CF811192CFAA
:102C1000B5CF2F9AFF91EF91BF91AF919F918F9177
:102C20007F916F915F914F913F912F910F900BBECC
:102C30000F900FBE0F901F901895809199058823D3
:102C400021F08091990560E084CF2F98E3CF1F9207
:102C50000F920FB60F9211240BB60F922F933F9342
:102C60004F935F936F937F938F939F93AF93BF9394
:102C7000CF93DF93EF93FF938091E402C091A50679
:102C8000D0E087FF23C010928500109284008091CD
:102C9000E4028F5F8093E4028091E402082E000C2E
:102CA000990B8C179D0724F48091E4028C3074F109
:102CB000809184009091850084349C4908F465C01B
:102CC0008091840090918500049661C08091E40217
:102CD000082E000C990B8C179D07CCF63091E4025E
:102CE00025E03203F0011124E759F94F808186FF76
:102CF000CECF3091E4023203F0011124E759F94FAD
:102D0000808160E08F730E94F402C1CF80918400C3
:102D1000909185003091E40225E03203F001112406
:102D2000E759F94F41815281840F951F9093890093
:102D3000809388003091E4023203F0011124E759B6
:102D4000F94F808186FF0CC03091E4023203F0011C
:102D50001124E759F94F808161E08F730E94F402DA
:102D6000FF91EF91DF91CF91BF91AF919F918F91A3
:102D70007F916F915F914F913F912F910F900BBE7B
:102D80000F900FBE0F901F90189580E49CE99093D0
:102D90008900809388008FEF8093E402E1CFCF9287
:102DA000DF92EF92FF920F931F93E82FF92F05C048
:102DB000015011092109310961F19081962394177D
:102DC000B9F305C0015011092109310911F19081B0
:102DD00096239413F7CFC12CD12CE12CF12C0AC0EF
:102DE0008FEFC81AD80AE80AF80A0C151D052E0537
:102DF0003F0579F080818623841791F36C2D7D2D1A
:102E00008E2D9F2D1F910F91FF90EF90DF90CF900F
:102E1000089560E070E080E090E01F910F91FF90D6
:102E2000EF90DF90CF9008951092B7031092B60301
:102E300088EE93E0A0E0B0E08093B8039093B903EC
:102E4000A093BA03B093BB0325E132E03093B503FE
:102E50002093B4031092C3031092C2038093C4035F
:102E60009093C503A093C603B093C70327E232E053
:102E70003093C1032093C00345E351E05093CD0349
:102E80004093CC0344E351E05093CF034093CE03EF
:102E900040E351E05093D1034093D00341E351E02C
:102EA0005093D3034093D20342E351E05093D503B0
:102EB0004093D40346E351E05093D7034093D603A5
:102EC0001092D9031092DA031092DB031092DC0304
:102ED0001092600410925F048093610490936204E6
:102EE000A0936304B093640430935E0420935D0464
:102EF00045ED50E050936A044093690444ED50E07E
:102F000050936C0440936B0440ED50E050936E047A
:102F100040936D0441ED50E05093700440936F0472
:102F200042ED50E0509372044093710446ED50E03E
:102F300050937404409373041092760410927704B3
:102F400010927804109279041092FD041092FC04FF
:102F50008093FE049093FF04A0930005B0930105B5
:102F60003093FB042093FA0485EC90E090930705DE
:102F70008093060584EC90E0909309058093080502
:102F800080EC90E090930B0580930A0581EC90E033
:102F900090930D0580930C0582EC90E090930F05C3
:102FA00080930E0586EC90E09093110580931005B8
:102FB0001092130510921405109215051092160523
:102FC0008091090290910A02A0910B02B0910C022B
:102FD00080938F0790939007A0939107B0939207E7
:102FE00080910D0290910E02A0910F02B0911002FB
:102FF0008093930790939407A0939507B0939607B7
:1030000084E08093970787E0809398071092990750
:1030100084EB80939A0786E180939B0788E18093F5
:103020009C0787E180939D0789E180939E07E0914B
:10303000A506EC3008F4ABC08FEF80939F07E091BA
:10304000A506EC3008F4B4C08FEF8093A0078CE0A5
:1030500080936E0784E280936F0786E08093700709
:1030600085E0809371078FE1809372078EE18093F2
:10307000730783E28093740782E28093750785E487
:103080008093760784E48093770780E480937A07BF
:1030900010927F071092800710928107109282078A
:1030A000109283071092840710928507109286076A
:1030B000E0EBF6E08FEF9FEFDC01128213821482C7
:1030C0001582168217821086118683879487A587BA
:1030D000B6878787908BA18BB28B12861182108264
:1030E000739627E0EE36F20741F78DE090E00E94FC
:1030F0002021FC011382128289E392E09183808374
:10310000118687E2848384E1828784E08387148642
:10311000F093AD06E093AC061092AE061092AF06A7
:1031200085E28093980510929A051092A706109256
:10313000A6061092A9061092A8061092AB0610924D
:10314000AA0661E070E090E080E00E9445220097CE
:1031500009F43FC09093A7068093A6061092A90693
:103160001092A8062091AA063091AB06232B11F4E9
:10317000FC0110821092AB061092AA0663E472E082
:103180008091A6069091A7060E942F2336C081E069
:103190008E0F8093A506E0939F0725E0E29FF00144
:1031A0001124E759F94F88EB9BE09283818347CF45
:1031B00081E08E0F8093A506E093A00785E0E89F4D
:1031C000F0011124E759F94F88EB9BE0928381834A
:1031D0003ECF8091A6069091A706009711F00E941D
:1031E000BC211092A7061092A6061092AB06109270
:1031F000AA061092A9061092A8061092A5078BEEB7
:1032000090E09093A9078093A80781E090E09093C5
:10321000A7078093A6070895789484B5826084BD3B
:1032200084B5816084BD85B5826085BD85B58160CA
:1032300085BD80916E00816080936E001092810048
:103240008091810082608093810080918100816003
:1032500080938100809180008160809380008091C4
:10326000B10084608093B1008091B0008160809350
:10327000B0008091910082608093910080919100D4
:103280008160809391008091900081608093900094
:103290008091A10082608093A1008091A100816053
:1032A0008093A1008091A00081608093A000809114
:1032B00021018260809321018091210181608093AE
:1032C00021018091200181608093200180917A000A
:1032D000846080937A0080917A00826080937A0083
:1032E00080917A00816080937A0080917A00806872
:1032F00080937A001092C10061E087E10E9461032F
:1033000060E086E10E946103E0910A05F0910B05FF
:10331000D2E0D083E0910605F09107051082E0919C
:103320000805F091090580E1808310921205E09173
:103330000E05F0910F05C6E0C083E0910C05F091F9
:103340000D05808180618083E0910C05F0910D0571
:10335000808188608083E0910C05F0910D0580816B
:1033600080688083E0910C05F0910D0580818F7D50
:10337000808360E08DE20E94610360E08EE20E9443
:10338000610360E08FE20E94610360E080E30E94DD
:10339000610361E08AE20E94610361E088E20E94C9
:1033A000610361E08BE20E94610361E089E20E94B7
:1033B0006103E0910A05F0910B05D083E0910605C9
:1033C000F09107051082E0910805F09109058FEC56
:1033D000808310921205E0910E05F0910F05C083D5
:1033E000E0910C05F0910D05808180618083E09172
:1033F0000C05F0910D05808188608083E0910C05BB
:10340000F0910D05808180688083E0910C05F0913A
:103410000D0580818F7D808361E080916F070E9420
:10342000610360E080916F070E94F40260E0809188
:103430006E070E94610384EB93E090937907809379
:10344000780710926303109262031092B1031092F6
:10345000B0030E94220380EB91E090935F0380937E
:103460005E0381EB91E0909361038093600380E0C1
:1034700090E1A0E0B0E080937B0790937C07A0935D
:103480007D07B0937E078AE090E0A0E0B0E08093F3
:103490007F0790938007A0938107B093820780E015
:1034A00090E0A0E0B0E48093830790938407A0931A
:1034B0008507B093860760E070E185E00E9484058F
:1034C0006FE979E380E00E94840500E717E0CEE62B
:1034D000D7E072E7C72E77E0D72EE8E56E2EE2E060
:1034E0007E2EFEE98F2EF2E09F2EABECEA2EA7E0B7
:1034F000FA2EF801928181918F01898F9A8F61E074
:103500000E94610361E08A8D0E9461035E01FDE11A
:10351000AF0EB11CF801958183818D8F9E8F61E084
:103520000E94610360E08E8D0E94610361E08D8DD9
:103530000E94F4025FB6F8948091EA02811125C0DE
:10354000F3018491F4019491E82FF0E0EE0FFF1F56
:10355000EB52FE4FA591B4918C91982321F461E038
:1035600085E30E94F40261E085E30E9461038CB56B
:1035700080618CBD8CB580648CBD61E084E30E9469
:10358000610361E083E30E9461038091EA028F5F3F
:103590008093EA025FBEC7010197F1F760E08D8D6D
:1035A0000E94F40288E80E94880883E00E9488084C
:1035B00061E08D8D0E94F402C7010197F1F7C5010A
:1035C0000E948F082296CC16DD0609F092CFC3E93F
:1035D000D7E060E089910E946103F7E0C739DF0717
:1035E000C1F76091970770E08FE997E00E9420098A
:1035F00090919D0780919B078093A1079093A207CC
:1036000060E00E94610361E08091A2070E94610373
:1036100060E08091A2070E94F4026091980770E038
:1036200080EA97E00E94200990919E0780919C0774
:103630008093A3079093A40760E00E94610361E078
:103640008091A4070E94610360E08091A4070E941A
:10365000F402F8941092200189E08093210180E225
:1036600093E09093290180932801109225011092F4
:10367000240182E0809373007894809397051092E0
:103680009B058091980560E00E9461036091970717
:1036900070E08FE997E00E9420096091980770E040
:1036A00080EA97E00E9420096DE780E00E94F20B1B
:1036B0006BE481E00E94F20B68EE73E080E090E042
:1036C0000E94D70581E090E090930202809301026E
:1036D00097E0692E712C25E0C22ED12C32E0A32E6A
:1036E000B12C43E0E42EF12C53E2852E912C83E89B
:1036F00092E00E94930B80910102909102020E943D
:10370000870C80910102909102028330910589F02B
:1037100044F481309105E9F00297E1F10E943C0701
:10372000E6CF8530910509F4B4C10CF4E3C00797E6
:10373000A9F760E088E20E94F40260E089E20E945A
:10374000F40260E08BE20E94F40281E00E940C101F
:10375000E5CF87E30E949203EC0186E30E94920387
:10376000C81BD90BCE010E94870C80E01C161D06D9
:103770006CF761E088E20E94F40261E089E20E9455
:10378000F40261E08BE20E94F402B0920202A09285
:103790000102C4CF60E087E10E94F402C7010197F3
:1037A000F1F761E087E10E94F402C4010197F1F7AB
:1037B00060E087E10E94F402EFE7F2E06491E9E360
:1037C000F2E08491E82FF0E0EE0FFF1FE75FFD4F7E
:1037D0008591949100E412E42FE030E0462F0E949E
:1037E000CF16611571058105910529F06F5F7F4F37
:1037F0008F4F9F4F9F700E94751E26E933E44BE068
:103800005DE30E94D41E20E030E040E05FE30E94D0
:10381000D41E0E94E0201B018AE892E00E94930BD4
:10382000C1010E94870CC1010697829708F05AC017
:103830008091EB029091EC0201969093EC028093C0
:10384000EB028091EB029091EC0202970CF466CFB0
:1038500040E050E0BA0187E897E00E94610740E04D
:1038600050E060E070E889E897E00E94610761E05D
:103870008AE20E94F40260E070E084EB92E40E942D
:10388000080BB101330C880B990B0E94751E1B01AC
:103890002C0140E00E947C0D60E08AE20E94F4026C
:1038A00060E070E084E393E40E94620A23E333E380
:1038B00043E75FE3C201B1010E94D41E41E00E94D0
:1038C0007C0D60E070E084EB92E40E94080B68EEEF
:1038D00073E080E090E00E94D705F0920202E0924F
:1038E00001021CCF80E00E940C101092EC0210929A
:1038F000EB02A7CF0E94B90C0E94870C0E94B90C62
:103900009093EE028093ED02892B09F407CFD0E06B
:10391000C0E0C0FD6EC04DEC5CEC6CEC7DEB87E86C
:1039200097E00E9461074DEC5CEC6CEC7DE389E86C
:1039300097E00E94610701E011E085E992E00E94B2
:10394000E40B80E30E94CB028DE20E94CB028EE268
:103950000E94CB028FE20E94CB028DE20E94CB023A
:10396000892B61F08DE992E00E94E40B40E050E089
:10397000BA0187E897E00E94610710E08FE20E9499
:10398000CB02892B69F083EA92E00E94E40B40E0CD
:1039900050E060E070E889E897E00E94610700E08D
:1039A00062E370E080E090E00E94D7051111C5CF7E
:1039B0000111C3CF40E050E0BA0187E897E00E94D0
:1039C000610740E050E060E070E889E897E00E941D
:1039D000610762E370E080E090E00E94D7052196E5
:1039E000C830D10509F095CFD0920202C0920102F1
:1039F00095CE4DEC5CEC6CEC7DE387E897E00E94A3
:103A000061074DEC5CEC6CEC7DEB89E897E00E9483
:103A1000610701E011E08AEA92E00E94E40B80E392
:103A20000E94CB028DE20E94CB028EE20E94CB026A
:103A30008FE20E94CB028DE20E94CB02892B61F4BF
:103A40008DE992E00E94E40B40E050E0BA0187E883
:103A500097E00E94610710E08FE20E94CB02892B61
:103A600069F483EA92E00E94E40B40E050E060E0F9
:103A700070E889E897E00E94610700E062E370E087
:103A800080E090E00E94D7051111C5CF0111C3CF8E
:103A900091CF40E060E070E080EE90E40E947C0D09
:103AA0006AE580E00E94F20B66E981E00E94F20B79
:103AB00068EE73E080E090E00E94D705C091ED02CF
:103AC000D091EE0262E370E080E090E00E94D705C2
:103AD000C130D10509F060C081E692E00E94E40B9C
:103AE00060E070E08AEA92EC0E94620A68EE73E09D
:103AF00080E090E00E94D70541E060E070E084E360
:103B000092E40E947C0D68EE73E080E090E00E94F9
:103B1000D70560E070E088EA92E40E94620A68EEED
:103B200073E080E090E00E94D70541E060E070E043
:103B300089E593E40E947C0D6CED75E080E090E0F7
:103B40000E94D7050E947F0C6CED75E080E090E04C
:103B50000E94D70560E070E08AE293E40E94620A66
:103B600041E060E070E087E593E40E947C0D68EE40
:103B700073E080E090E00E94D70560E070E088E8A4
:103B800091EC0E94620A8DEB92E00E94E40B70922D
:103B9000020260920102C2CDC230D10509F040C0DC
:103BA00082EB92E00E94E40B60E070E080E89FEB23
:103BB0000E94620A41E060E070E089E593E40E94BF
:103BC0007C0D6CED75E080E090E00E94D7050E94CE
:103BD0007F0C6CED75E080E090E00E94D70560E01E
:103BE00070E08AE293E40E94620A41E060E070E0E3
:103BF00087E593E40E947C0D68EE73E080E090E03E
:103C00000E94D70560E070E088E891EC0E94620AAB
:103C100040E060E070E080EF91E40E947C0DB3CF63
:103C2000239709F0B0CF87EB92E00E94E40B60E0AD
:103C300070E08AEA92E40E94620A68EE73E080E033
:103C400090E00E94D70541E060E070E084E392E4F8
:103C50000E947C0D68EE73E080E090E00E94D70542
:103C600060E070E08CEA92EC0E94620A68EE73E019
:103C700080E090E00E94D70541E060E070E087E5D9
:103C800093E40E947C0D6CED75E080E090E00E9472
:103C9000D7050E947F0C6CED75E080E090E00E94FB
:103CA000D70560E070E08BE293E40E94620A41E095
:103CB00060E070E08CE593E40E947C0D68EE73E0B8
:103CC00080E090E00E94D7055ECF8091A60690919B
:103CD000A706009711F00C94BC2108950E94B01E15
:103CE00008F481E00895E89409C097FB3EF49095AC
:103CF0008095709561957F4F8F4F9F4F9923A9F0C5
:103D0000F92F96E9BB279395F69587957795679553
:103D1000B795F111F8CFFAF4BB0F11F460FF1BC097
:103D20006F5F7F4F8F4F9F4F16C0882311F096E92A
:103D300011C0772321F09EE8872F762F05C06623D8
:103D400071F096E8862F70E060E02AF09A95660F91
:103D5000771F881FDAF7880F9695879597F908954A
:103D6000990F0008550FAA0BE0E8FEEF161617068C
:103D7000E807F907C0F012161306E407F50798F0F4
:103D8000621B730B840B950B39F40A2661F0232B0D
:103D9000242B252B21F408950A2609F4A140A69589
:103DA0008FEF811D811D08950E94E71E0C94581FFE
:103DB0000E944A1F38F00E94511F20F0952311F0F5
:103DC0000C94411F0C94471F11240C948C1F0E94CB
:103DD000691F70F3959FC1F3950F50E0551F629FC7
:103DE000F001729FBB27F00DB11D639FAA27F00D54
:103DF000B11DAA1F649F6627B00DA11D661F829F7B
:103E00002227B00DA11D621F739FB00DA11D621F5F
:103E1000839FA00D611D221F749F3327A00D611D7C
:103E2000231F849F600D211D822F762F6A2F11245E
:103E30009F5750409AF0F1F088234AF0EE0FFF1F91
:103E4000BB1F661F771F881F91505040A9F79E3FE8
:103E5000510580F00C94411F0C948C1F5F3FE4F3DC
:103E6000983ED4F3869577956795B795F795E7953E
:103E70009F5FC1F7FE2B880F911D9695879597F947
:103E8000089597F99F6780E870E060E008959FEFDC
:103E900080EC089500240A941616170618060906E1
:103EA000089500240A9412161306140605060895B0
:103EB000092E0394000C11F4882352F0BB0F40F438
:103EC000BF2B11F460FF04C06F5F7F4F8F4F9F4F78
:103ED000089557FD9058440F551F59F05F3F71F0FA
:103EE0004795880F97FB991F61F09F3F79F0879561
:103EF0000895121613061406551FF2CF4695F1DFEA
:103F000008C0161617061806991FF1CF8695710579
:103F1000610508940895E894BB2766277727CB01AD
:103F200097F90895052E97FB1EF400940E94A91F8F
:103F300057FD07D00E94BC1F07FC03D04EF40C9421
:103F4000A91F50954095309521953F4F4F4F5F4F9A
:103F5000089590958095709561957F4F8F4F9F4FF5
:103F600008950E94DE1FA59F900DB49F900DA49F01
:103F7000800D911D11240895A1E21A2EAA1BBB1BCE
:103F8000FD010DC0AA1FBB1FEE1FFF1FA217B30725
:103F9000E407F50720F0A21BB30BE40BF50B661F3B
:103FA000771F881F991F1A9469F7609570958095FF
:103FB00090959B01AC01BD01CF010895A29FB00176
:103FC000B39FC001A39F700D811D1124911DB29F4D
:103FD000700D811D1124911D0895991B79E004C075
:103FE000991F961708F0961B881F7A95C9F7809538
:103FF0000895EE0FFF1F881F8BBF0790F691E02DED
:1040000019945058BB27AA270E9419200C94581FB6
:104010000E944A1F38F00E94511F20F039F49F3F40
:1040200019F426F40C94471F0EF4E095E7FB0C946A
:10403000411FE92F0E94691F58F3BA1762077307DF
:104040008407950720F079F4A6F50C948B1F0EF4E5
:10405000E0950B2EBA2FA02D0B01B90190010C0198
:10406000CA01A0011124FF27591B99F0593F50F4B0
:10407000503E68F11A16F040A22F232F342F442708
:10408000585FF3CF469537952795A795F040539500
:10409000C9F77EF41F16BA0B620B730B840BBAF0D0
:1040A0009150A1F0FF0FBB1F661F771F881FC2F73B
:1040B0000EC0BA0F621F731F841F48F4879577954F
:1040C0006795B795F7959E3F08F0B0CF9395880F09
:1040D00008F09927EE0F9795879508950E94822002
:1040E0000C94581F0E94511F58F00E944A1F40F024
:1040F00029F45F3F29F00C94411F51110C948C1F3F
:104100000C94471F0E94691F68F39923B1F355234C
:1041100091F3951B550BBB27AA27621773078407DA
:1041200038F09F5F5F4F220F331F441FAA1FA9F370
:1041300035D00E2E3AF0E0E832D091505040E6955E
:10414000001CCAF72BD0FE2F29D0660F771F881FBF
:10415000BB1F261737074807AB07B0E809F0BB0BB2
:10416000802DBF01FF2793585F4F3AF09E3F5105C6
:1041700078F00C94411F0C948C1F5F3FE4F3983E41
:10418000D4F3869577956795B795F7959F5FC9F7AF
:10419000880F911D9695879597F90895E1E0660F30
:1041A000771F881FBB1F621773078407BA0720F0A9
:1041B000621B730B840BBA0BEE1F88F7E095089512
:1041C0000E94E7206894B1110C948C1F08950E94FE
:1041D000711F88F09F5798F0B92F9927B751B0F009
:1041E000E1F0660F771F881F991F1AF0BA95C9F77B
:1041F00014C0B13091F00E948B1FB1E008950C946F
:104200008B1F672F782F8827B85F39F0B93FCCF321
:10421000869577956795B395D9F73EF490958095F7
:10422000709561957F4F8F4F9F4F08950E94B01EEC
:1042300008F48FEF08950E94B01E880B990B089523
:104240000F931F93CF93DF938230910510F482E098
:1042500090E0E091AC07F091AD0730E020E0B0E0F5
:10426000A0E0309799F42115310509F44AC0281BC4
:10427000390B24303105D8F58A819B816115710590
:1042800089F1FB0193838283FE0111C0408151813A
:104290000281138148175907E0F04817590799F42C
:1042A000109761F012960C93129713961C93329606
:1042B000CF01DF91CF911F910F9108950093AC072B
:1042C0001093AD07F4CF2115310551F04217530774
:1042D00038F0A901DB019A01BD01DF01F801C1CF6E
:1042E000EF01F9CF9093AD078093AC07CDCFFE01DE
:1042F000E20FF31F81939193225031093983288370
:10430000D7CF2091AA073091AB07232B41F42091FE
:104310000502309106023093AB072093AA07209143
:104320000302309104022115310541F42DB73EB747
:104330004091070250910802241B350BE091AA0717
:10434000F091AB07E217F307A0F42E1B3F0B2817E1
:10435000390778F0AC014E5F5F4F2417350748F0FE
:104360004E0F5F1F5093AB074093AA078193919321
:104370009FCFF0E0E0E09CCFCF93DF930097E9F090
:10438000FC01329713821282A091AC07B091AD0765
:10439000ED0130E020E01097A1F420813181820FFF
:1043A000931F2091AA073091AB072817390709F00E
:1043B00061C0F093AB07E093AA07DF91CF91089516
:1043C000EA01CE17DF07E8F54A815B819E014115BE
:1043D0005105B1F7E901FB83EA8349915991C40F73
:1043E000D51FEC17FD0761F4808191810296840F3F
:1043F000951FE90199838883828193819B838A83B6
:10440000F0E0E0E012968D919C9113970097B9F53A
:104410002D913C911197CD010296820F931F20910F
:10442000AA073091AB072817390739F6309751F5AD
:104430001092AD071092AC07B093AB07A093AA07F8
:10444000BCCFD383C28340815181840F951FC8178D
:10445000D90761F44E5F5F4F88819981480F591FDA
:10446000518340838A819B81938382832115310507
:1044700009F0B0CFF093AD07E093AC079ECFFD01FC
:10448000DC01C0CF13821282D7CF4F925F926F921E
:104490007F928F929F92AF92BF92CF92DF92EF92D4
:1044A000FF920F931F93CF93DF938C01009799F4A2
:1044B000CB01DF91CF911F910F91FF90EF90DF9093
:1044C000CF90BF90AF909F908F907F906F905F90B4
:1044D0004F900C942021FC01E60FF71F9C01225005
:1044E0003109E217F30708F4AEC0D901CD91DC9190
:1044F0001197C617D70720F1C530D10578F0CE0146
:1045000004978617970750F0C61BD70B2297C193C5
:10451000D1936D937C93CF010E94BC21C801DF91A0
:10452000CF911F910F91FF90EF90DF90CF90BF90B0
:10453000AF909F908F907F906F905F904F90089575
:104540005B01AC1ABD0A4C018C0E9D1EA091AC07FC
:10455000B091AD07512C412CF12CE12C109731F585
:104560008091AA079091AB078815990509F05CC066
:104570004616570608F058C0809103029091040235
:10458000009741F48DB79EB7409107025091080201
:10459000841B950BE817F90708F055C0F093AB079B
:1045A000E093AA07F90171836083B8CF8D919C9144
:1045B000119712966C90129713967C901397A815EA
:1045C000B90559F56C0142E0C40ED11CCA14DB04D4
:1045D00020F1AC014A195B09DA011296159780F0B7
:1045E0006282738251834083D9016D937C93E1147D
:1045F000F10471F0D7011396FC93EE9312978ECFCE
:1046000022968C0F9D1FF90191838083F301EFCFD8
:10461000F093AD07E093AC0781CF4816590608F434
:104620002C017D01D3019ACFCB010E9420217C0176
:10463000009749F0AE01B8010E942623C8010E94EC
:10464000BC2187016BCF10E000E068CFFB01DC01EB
:1046500002C001900D9241505040D8F70895FB01DF
:10466000DC0101900D920020E1F7089511E0CCE704
:10467000D1E000E006C0802FFE010E94F91F2196C4
:10468000011DCD37D10780E00807A9F7F894FFCFC7
:10469000FF01000000AE078000363738391B1D1AB5
:1046A0001C00000000300203028909D901FC01E965
:1046B00001DA0100000000CC0609064F0619078048
:1046C000065E067206000000003E0A090689098897
:1046D000090D0A00536572766F20616E676C652064
:1046E0006973206F7574206F662072616E67652133
:1046F00000626C6575006E616E00696E66006F76B3
:10470000660061206C276169646500746573746973
:104710006E67004D6F64653A200044697374616E82
:1047200063653A2000526563756C6520004C6566D0
:10473000742000526967687420004176616E636579
:104740002000726F7365004A61756E65004675637F
:024750006B00FC
:00000001FF
